{
    "abi": [
        {
            "inputs": [],
            "stateMutability": "nonpayable",
            "type": "constructor"
        },
        {
            "inputs": [],
            "name": "buyTickets",
            "outputs": [],
            "stateMutability": "payable",
            "type": "function"
        },
        {
            "inputs": [],
            "name": "currentWinningReward",
            "outputs": [
                {
                    "internalType": "uint256",
                    "name": "",
                    "type": "uint256"
                }
            ],
            "stateMutability": "view",
            "type": "function"
        },
        {
            "inputs": [],
            "name": "drawWinnerTicket",
            "outputs": [],
            "stateMutability": "nonpayable",
            "type": "function"
        },
        {
            "inputs": [],
            "name": "duration",
            "outputs": [
                {
                    "internalType": "uint256",
                    "name": "",
                    "type": "uint256"
                }
            ],
            "stateMutability": "view",
            "type": "function"
        },
        {
            "inputs": [],
            "name": "expiration",
            "outputs": [
                {
                    "internalType": "uint256",
                    "name": "",
                    "type": "uint256"
                }
            ],
            "stateMutability": "view",
            "type": "function"
        },
        {
            "inputs": [],
            "name": "getTickets",
            "outputs": [
                {
                    "internalType": "address[]",
                    "name": "",
                    "type": "address[]"
                }
            ],
            "stateMutability": "view",
            "type": "function"
        },
        {
            "inputs": [
                {
                    "internalType": "address",
                    "name": "addr",
                    "type": "address"
                }
            ],
            "name": "getWinningsForAddress",
            "outputs": [
                {
                    "internalType": "uint256",
                    "name": "",
                    "type": "uint256"
                }
            ],
            "stateMutability": "view",
            "type": "function"
        },
        {
            "inputs": [],
            "name": "lastWinner",
            "outputs": [
                {
                    "internalType": "address",
                    "name": "",
                    "type": "address"
                }
            ],
            "stateMutability": "view",
            "type": "function"
        },
        {
            "inputs": [],
            "name": "lastWinnerAmount",
            "outputs": [
                {
                    "internalType": "uint256",
                    "name": "",
                    "type": "uint256"
                }
            ],
            "stateMutability": "view",
            "type": "function"
        },
        {
            "inputs": [],
            "name": "lotteryOperator",
            "outputs": [
                {
                    "internalType": "address",
                    "name": "",
                    "type": "address"
                }
            ],
            "stateMutability": "view",
            "type": "function"
        },
        {
            "inputs": [],
            "name": "operatorTotalComisison",
            "outputs": [
                {
                    "internalType": "uint256",
                    "name": "",
                    "type": "uint256"
                }
            ],
            "stateMutability": "view",
            "type": "function"
        },
        {
            "inputs": [],
            "name": "restartDraw",
            "outputs": [],
            "stateMutability": "nonpayable",
            "type": "function"
        },
        {
            "inputs": [],
            "name": "senderIsWinner",
            "outputs": [
                {
                    "internalType": "bool",
                    "name": "",
                    "type": "bool"
                }
            ],
            "stateMutability": "view",
            "type": "function"
        },
        {
            "inputs": [],
            "name": "ticketComission",
            "outputs": [
                {
                    "internalType": "uint256",
                    "name": "",
                    "type": "uint256"
                }
            ],
            "stateMutability": "view",
            "type": "function"
        },
        {
            "inputs": [],
            "name": "ticketPrice",
            "outputs": [
                {
                    "internalType": "uint256",
                    "name": "",
                    "type": "uint256"
                }
            ],
            "stateMutability": "view",
            "type": "function"
        },
        {
            "inputs": [
                {
                    "internalType": "uint256",
                    "name": "",
                    "type": "uint256"
                }
            ],
            "name": "tickets",
            "outputs": [
                {
                    "internalType": "address",
                    "name": "",
                    "type": "address"
                }
            ],
            "stateMutability": "view",
            "type": "function"
        },
        {
            "inputs": [
                {
                    "internalType": "address",
                    "name": "",
                    "type": "address"
                }
            ],
            "name": "winnings",
            "outputs": [
                {
                    "internalType": "uint256",
                    "name": "",
                    "type": "uint256"
                }
            ],
            "stateMutability": "view",
            "type": "function"
        },
        {
            "inputs": [],
            "name": "withdrawComission",
            "outputs": [],
            "stateMutability": "nonpayable",
            "type": "function"
        },
        {
            "inputs": [],
            "name": "withdrawWinnings",
            "outputs": [],
            "stateMutability": "nonpayable",
            "type": "function"
        }
    ],
    "devdoc": {
        "kind": "dev",
        "methods": {},
        "version": 1
    },
    "evm": {
        "assembly": "    /* \"LuckyTickets.sol\":62:3417  contract LuckyTickets {... */\n  mstore(0x40, 0x80)\n    /* \"LuckyTickets.sol\":367:368  0 */\n  0x00\n    /* \"LuckyTickets.sol\":327:368  uint256 public operatorTotalComisison = 0 */\n  0x02\n  sstore\n    /* \"LuckyTickets.sol\":528:639  constructor() {... */\n  callvalue\n  dup1\n  iszero\n  tag_1\n  jumpi\n  0x00\n  dup1\n  revert\ntag_1:\n  pop\n    /* \"LuckyTickets.sol\":553:568  lotteryOperator */\n  0x01\n    /* \"LuckyTickets.sol\":553:581  lotteryOperator = msg.sender */\n  dup1\n  sload\n  not(sub(shl(0xa0, 0x01), 0x01))\n  and\n    /* \"LuckyTickets.sol\":571:581  msg.sender */\n  caller\n    /* \"LuckyTickets.sol\":553:581  lotteryOperator = msg.sender */\n  or\n  swap1\n  sstore\n    /* \"LuckyTickets.sol\":605:631  block.timestamp + duration */\n  tag_4\n    /* \"LuckyTickets.sol\":241:249  24 hours */\n  0x015180\n    /* \"LuckyTickets.sol\":605:620  block.timestamp */\n  timestamp\n    /* \"LuckyTickets.sol\":605:631  block.timestamp + duration */\n  tag_5\n  jump\t// in\ntag_4:\n    /* \"LuckyTickets.sol\":592:602  expiration */\n  0x00\n    /* \"LuckyTickets.sol\":592:631  expiration = block.timestamp + duration */\n  sstore\n    /* \"LuckyTickets.sol\":62:3417  contract LuckyTickets {... */\n  jump(tag_7)\n    /* \"#utility.yul\":14:236   */\ntag_5:\n    /* \"#utility.yul\":79:88   */\n  dup1\n  dup3\n  add\n    /* \"#utility.yul\":100:110   */\n  dup1\n  dup3\n  gt\n    /* \"#utility.yul\":97:230   */\n  iszero\n  tag_9\n  jumpi\n    /* \"#utility.yul\":152:162   */\n  0x4e487b71\n    /* \"#utility.yul\":147:150   */\n  0xe0\n    /* \"#utility.yul\":143:163   */\n  shl\n    /* \"#utility.yul\":140:141   */\n  0x00\n    /* \"#utility.yul\":133:164   */\n  mstore\n    /* \"#utility.yul\":187:191   */\n  0x11\n    /* \"#utility.yul\":184:185   */\n  0x04\n    /* \"#utility.yul\":177:192   */\n  mstore\n    /* \"#utility.yul\":215:219   */\n  0x24\n    /* \"#utility.yul\":212:213   */\n  0x00\n    /* \"#utility.yul\":205:220   */\n  revert\n    /* \"#utility.yul\":97:230   */\ntag_9:\n    /* \"#utility.yul\":14:236   */\n  swap3\n  swap2\n  pop\n  pop\n  jump\t// out\ntag_7:\n    /* \"LuckyTickets.sol\":62:3417  contract LuckyTickets {... */\n  dataSize(sub_0)\n  dup1\n  dataOffset(sub_0)\n  0x00\n  codecopy\n  0x00\n  return\nstop\n\nsub_0: assembly {\n        /* \"LuckyTickets.sol\":62:3417  contract LuckyTickets {... */\n      mstore(0x40, 0x80)\n      jumpi(tag_1, lt(calldatasize, 0x04))\n      shr(0xe0, calldataload(0x00))\n      dup1\n      0x5a58acdd\n      gt\n      tag_21\n      jumpi\n      dup1\n      0xd2d582f1\n      gt\n      tag_22\n      jumpi\n      dup1\n      0xea3a1499\n      gt\n      tag_23\n      jumpi\n      dup1\n      0xea3a1499\n      eq\n      tag_18\n      jumpi\n      dup1\n      0xf2613269\n      eq\n      tag_19\n      jumpi\n      dup1\n      0xfe188184\n      eq\n      tag_20\n      jumpi\n      0x00\n      dup1\n      revert\n    tag_23:\n      dup1\n      0xd2d582f1\n      eq\n      tag_16\n      jumpi\n      dup1\n      0xdd64e534\n      eq\n      tag_17\n      jumpi\n      0x00\n      dup1\n      revert\n    tag_22:\n      dup1\n      0x6894744e\n      gt\n      tag_24\n      jumpi\n      dup1\n      0x6894744e\n      eq\n      tag_13\n      jumpi\n      dup1\n      0xc8199826\n      eq\n      tag_14\n      jumpi\n      dup1\n      0xcc42e83a\n      eq\n      tag_15\n      jumpi\n      0x00\n      dup1\n      revert\n    tag_24:\n      dup1\n      0x5a58acdd\n      eq\n      tag_11\n      jumpi\n      dup1\n      0x677a9e34\n      eq\n      tag_12\n      jumpi\n      0x00\n      dup1\n      revert\n    tag_21:\n      dup1\n      0x24aa5920\n      gt\n      tag_25\n      jumpi\n      dup1\n      0x4c62a644\n      gt\n      tag_26\n      jumpi\n      dup1\n      0x4c62a644\n      eq\n      tag_8\n      jumpi\n      dup1\n      0x4ed02622\n      eq\n      tag_9\n      jumpi\n      dup1\n      0x50b44712\n      eq\n      tag_10\n      jumpi\n      0x00\n      dup1\n      revert\n    tag_26:\n      dup1\n      0x24aa5920\n      eq\n      tag_6\n      jumpi\n      dup1\n      0x4665096d\n      eq\n      tag_7\n      jumpi\n      0x00\n      dup1\n      revert\n    tag_25:\n      dup1\n      0x06f7f3bf\n      eq\n      tag_2\n      jumpi\n      dup1\n      0x0fb5a6b4\n      eq\n      tag_3\n      jumpi\n      dup1\n      0x1209b1f6\n      eq\n      tag_4\n      jumpi\n      dup1\n      0x1d8d605b\n      eq\n      tag_5\n      jumpi\n    tag_1:\n      0x00\n      dup1\n      revert\n        /* \"LuckyTickets.sol\":488:519  uint256 public lastWinnerAmount */\n    tag_2:\n      callvalue\n      dup1\n      iszero\n      tag_27\n      jumpi\n      0x00\n      dup1\n      revert\n    tag_27:\n      pop\n      tag_28\n      sload(0x06)\n      dup2\n      jump\n    tag_28:\n      mload(0x40)\n        /* \"#utility.yul\":160:185   */\n      swap1\n      dup2\n      mstore\n        /* \"#utility.yul\":148:150   */\n      0x20\n        /* \"#utility.yul\":133:151   */\n      add\n        /* \"LuckyTickets.sol\":488:519  uint256 public lastWinnerAmount */\n    tag_30:\n      mload(0x40)\n      dup1\n      swap2\n      sub\n      swap1\n      return\n        /* \"LuckyTickets.sol\":206:249  uint256 public constant duration = 24 hours */\n    tag_3:\n      callvalue\n      dup1\n      iszero\n      tag_32\n      jumpi\n      0x00\n      dup1\n      revert\n    tag_32:\n      pop\n      tag_28\n        /* \"LuckyTickets.sol\":241:249  24 hours */\n      0x015180\n        /* \"LuckyTickets.sol\":206:249  uint256 public constant duration = 24 hours */\n      dup2\n      jump\n        /* \"LuckyTickets.sol\":91:139  uint256 public constant ticketPrice = 0.01 ether */\n    tag_4:\n      callvalue\n      dup1\n      iszero\n      tag_36\n      jumpi\n      0x00\n      dup1\n      revert\n    tag_36:\n      pop\n      tag_28\n        /* \"LuckyTickets.sol\":129:139  0.01 ether */\n      0x2386f26fc10000\n        /* \"LuckyTickets.sol\":91:139  uint256 public constant ticketPrice = 0.01 ether */\n      dup2\n      jump\n        /* \"LuckyTickets.sol\":3278:3414  function currentWinningReward() public view returns (uint256) {... */\n    tag_5:\n      callvalue\n      dup1\n      iszero\n      tag_40\n      jumpi\n      0x00\n      dup1\n      revert\n    tag_40:\n      pop\n      tag_28\n      tag_42\n      jump\t// in\n        /* \"LuckyTickets.sol\":146:199  uint256 public constant ticketComission = 0.001 ether */\n    tag_6:\n      callvalue\n      dup1\n      iszero\n      tag_44\n      jumpi\n      0x00\n      dup1\n      revert\n    tag_44:\n      pop\n      tag_28\n        /* \"LuckyTickets.sol\":188:199  0.001 ether */\n      0x038d7ea4c68000\n        /* \"LuckyTickets.sol\":146:199  uint256 public constant ticketComission = 0.001 ether */\n      dup2\n      jump\n        /* \"LuckyTickets.sol\":258:283  uint256 public expiration */\n    tag_7:\n      callvalue\n      dup1\n      iszero\n      tag_48\n      jumpi\n      0x00\n      dup1\n      revert\n    tag_48:\n      pop\n      tag_28\n      sload(0x00)\n      dup2\n      jump\n        /* \"LuckyTickets.sol\":2759:3020  function withdrawComission() public isOperator {... */\n    tag_8:\n      callvalue\n      dup1\n      iszero\n      tag_52\n      jumpi\n      0x00\n      dup1\n      revert\n    tag_52:\n      pop\n      tag_53\n      tag_54\n      jump\t// in\n    tag_53:\n      stop\n        /* \"LuckyTickets.sol\":1467:1561  function getTickets() public view returns (address[] memory) {... */\n    tag_9:\n      callvalue\n      dup1\n      iszero\n      tag_55\n      jumpi\n      0x00\n      dup1\n      revert\n    tag_55:\n      pop\n      tag_56\n      tag_57\n      jump\t// in\n    tag_56:\n      mload(0x40)\n      tag_30\n      swap2\n      swap1\n      tag_59\n      jump\t// in\n        /* \"LuckyTickets.sol\":375:399  address[] public tickets */\n    tag_10:\n      callvalue\n      dup1\n      iszero\n      tag_60\n      jumpi\n      0x00\n      dup1\n      revert\n    tag_60:\n      pop\n      tag_61\n      tag_62\n      calldatasize\n      0x04\n      tag_63\n      jump\t// in\n    tag_62:\n      tag_64\n      jump\t// in\n    tag_61:\n      mload(0x40)\n      sub(shl(0xa0, 0x01), 0x01)\n        /* \"#utility.yul\":1231:1286   */\n      swap1\n      swap2\n      and\n        /* \"#utility.yul\":1213:1287   */\n      dup2\n      mstore\n        /* \"#utility.yul\":1201:1203   */\n      0x20\n        /* \"#utility.yul\":1186:1204   */\n      add\n        /* \"LuckyTickets.sol\":375:399  address[] public tickets */\n      tag_30\n        /* \"#utility.yul\":1067:1293   */\n      jump\n        /* \"LuckyTickets.sol\":290:320  address public lotteryOperator */\n    tag_11:\n      callvalue\n      dup1\n      iszero\n      tag_67\n      jumpi\n      0x00\n      dup1\n      revert\n    tag_67:\n      pop\n      sload(0x01)\n      tag_61\n      swap1\n      sub(shl(0xa0, 0x01), 0x01)\n      and\n      dup2\n      jump\n        /* \"LuckyTickets.sol\":1692:1795  function senderIsWinner() public view returns (bool) {... */\n    tag_12:\n      callvalue\n      dup1\n      iszero\n      tag_71\n      jumpi\n      0x00\n      dup1\n      revert\n    tag_71:\n      pop\n        /* \"LuckyTickets.sol\":1772:1782  msg.sender */\n      caller\n        /* \"LuckyTickets.sol\":1739:1743  bool */\n      0x00\n        /* \"LuckyTickets.sol\":1763:1783  winnings[msg.sender] */\n      swap1\n      dup2\n      mstore\n        /* \"LuckyTickets.sol\":1763:1771  winnings */\n      0x04\n        /* \"LuckyTickets.sol\":1763:1783  winnings[msg.sender] */\n      0x20\n      mstore\n      0x40\n      swap1\n      keccak256\n      sload\n        /* \"LuckyTickets.sol\":1763:1787  winnings[msg.sender] > 0 */\n      iszero\n      iszero\n        /* \"LuckyTickets.sol\":1692:1795  function senderIsWinner() public view returns (bool) {... */\n      mload(0x40)\n        /* \"#utility.yul\":1463:1477   */\n      swap1\n      iszero\n        /* \"#utility.yul\":1456:1478   */\n      iszero\n        /* \"#utility.yul\":1438:1479   */\n      dup2\n      mstore\n        /* \"#utility.yul\":1426:1428   */\n      0x20\n        /* \"#utility.yul\":1411:1429   */\n      add\n        /* \"LuckyTickets.sol\":1692:1795  function senderIsWinner() public view returns (bool) {... */\n      tag_30\n        /* \"#utility.yul\":1298:1485   */\n      jump\n        /* \"LuckyTickets.sol\":1803:2536  function drawWinnerTicket() public isOperator {... */\n    tag_13:\n      callvalue\n      dup1\n      iszero\n      tag_76\n      jumpi\n      0x00\n      dup1\n      revert\n    tag_76:\n      pop\n      tag_53\n      tag_78\n      jump\t// in\n        /* \"LuckyTickets.sol\":1106:1459  function buyTickets() public payable isNotOperator {... */\n    tag_14:\n      tag_53\n      tag_80\n      jump\t// in\n        /* \"LuckyTickets.sol\":3028:3270  function withdrawWinnings() public isWinner {... */\n    tag_15:\n      callvalue\n      dup1\n      iszero\n      tag_81\n      jumpi\n      0x00\n      dup1\n      revert\n    tag_81:\n      pop\n      tag_53\n      tag_83\n      jump\t// in\n        /* \"LuckyTickets.sol\":327:368  uint256 public operatorTotalComisison = 0 */\n    tag_16:\n      callvalue\n      dup1\n      iszero\n      tag_84\n      jumpi\n      0x00\n      dup1\n      revert\n    tag_84:\n      pop\n      tag_28\n      sload(0x02)\n      dup2\n      jump\n        /* \"LuckyTickets.sol\":1569:1684  function getWinningsForAddress(address addr) public view returns (uint256) {... */\n    tag_17:\n      callvalue\n      dup1\n      iszero\n      tag_88\n      jumpi\n      0x00\n      dup1\n      revert\n    tag_88:\n      pop\n      tag_28\n      tag_90\n      calldatasize\n      0x04\n      tag_91\n      jump\t// in\n    tag_90:\n      sub(shl(0xa0, 0x01), 0x01)\n        /* \"LuckyTickets.sol\":1662:1676  winnings[addr] */\n      and\n        /* \"LuckyTickets.sol\":1635:1642  uint256 */\n      0x00\n        /* \"LuckyTickets.sol\":1662:1676  winnings[addr] */\n      swap1\n      dup2\n      mstore\n        /* \"LuckyTickets.sol\":1662:1670  winnings */\n      0x04\n        /* \"LuckyTickets.sol\":1662:1676  winnings[addr] */\n      0x20\n      mstore\n      0x40\n      swap1\n      keccak256\n      sload\n      swap1\n        /* \"LuckyTickets.sol\":1569:1684  function getWinningsForAddress(address addr) public view returns (uint256) {... */\n      jump\n        /* \"LuckyTickets.sol\":406:449  mapping(address => uint256) public winnings */\n    tag_18:\n      callvalue\n      dup1\n      iszero\n      tag_94\n      jumpi\n      0x00\n      dup1\n      revert\n    tag_94:\n      pop\n      tag_28\n      tag_96\n      calldatasize\n      0x04\n      tag_91\n      jump\t// in\n    tag_96:\n      mstore(0x20, 0x04)\n      0x00\n      swap1\n      dup2\n      mstore\n      0x40\n      swap1\n      keccak256\n      sload\n      dup2\n      jump\n        /* \"LuckyTickets.sol\":2544:2751  function restartDraw() public isOperator {... */\n    tag_19:\n      callvalue\n      dup1\n      iszero\n      tag_99\n      jumpi\n      0x00\n      dup1\n      revert\n    tag_99:\n      pop\n      tag_53\n      tag_101\n      jump\t// in\n        /* \"LuckyTickets.sol\":456:481  address public lastWinner */\n    tag_20:\n      callvalue\n      dup1\n      iszero\n      tag_102\n      jumpi\n      0x00\n      dup1\n      revert\n    tag_102:\n      pop\n      sload(0x05)\n      tag_61\n      swap1\n      sub(shl(0xa0, 0x01), 0x01)\n      and\n      dup2\n      jump\n        /* \"LuckyTickets.sol\":3278:3414  function currentWinningReward() public view returns (uint256) {... */\n    tag_42:\n        /* \"LuckyTickets.sol\":3331:3338  uint256 */\n      0x00\n        /* \"LuckyTickets.sol\":3376:3405  ticketPrice - ticketComission */\n      tag_107\n        /* \"LuckyTickets.sol\":188:199  0.001 ether */\n      0x038d7ea4c68000\n        /* \"LuckyTickets.sol\":129:139  0.01 ether */\n      0x2386f26fc10000\n        /* \"LuckyTickets.sol\":3376:3405  ticketPrice - ticketComission */\n      tag_108\n      jump\t// in\n    tag_107:\n        /* \"LuckyTickets.sol\":3358:3365  tickets */\n      0x03\n        /* \"LuckyTickets.sol\":3358:3372  tickets.length */\n      sload\n        /* \"LuckyTickets.sol\":3358:3406  tickets.length * (ticketPrice - ticketComission) */\n      tag_109\n      swap2\n      swap1\n      tag_110\n      jump\t// in\n    tag_109:\n        /* \"LuckyTickets.sol\":3351:3406  return tickets.length * (ticketPrice - ticketComission) */\n      swap1\n      pop\n        /* \"LuckyTickets.sol\":3278:3414  function currentWinningReward() public view returns (uint256) {... */\n      swap1\n      jump\t// out\n        /* \"LuckyTickets.sol\":2759:3020  function withdrawComission() public isOperator {... */\n    tag_54:\n        /* \"LuckyTickets.sol\":892:907  lotteryOperator */\n      and(sub(shl(0xa0, 0x01), 0x01), sload(0x01))\n        /* \"LuckyTickets.sol\":878:888  msg.sender */\n      caller\n        /* \"LuckyTickets.sol\":878:907  msg.sender == lotteryOperator */\n      eq\n        /* \"LuckyTickets.sol\":855:970  require(... */\n      tag_112\n      jumpi\n      mload(0x40)\n      shl(0xe5, 0x461bcd)\n      dup2\n      mstore\n        /* \"#utility.yul\":2444:2446   */\n      0x20\n        /* \"LuckyTickets.sol\":855:970  require(... */\n      0x04\n      dup3\n      add\n        /* \"#utility.yul\":2426:2447   */\n      mstore\n        /* \"#utility.yul\":2483:2485   */\n      0x22\n        /* \"#utility.yul\":2463:2481   */\n      0x24\n      dup3\n      add\n        /* \"#utility.yul\":2456:2486   */\n      mstore\n        /* \"#utility.yul\":2522:2556   */\n      0x63616c6c6572206973206e6f7420746865206c6f7465727279206f7065726174\n        /* \"#utility.yul\":2502:2520   */\n      0x44\n      dup3\n      add\n        /* \"#utility.yul\":2495:2557   */\n      mstore\n      shl(0xf1, 0x37b9)\n        /* \"#utility.yul\":2573:2591   */\n      0x64\n      dup3\n      add\n        /* \"#utility.yul\":2566:2598   */\n      mstore\n        /* \"#utility.yul\":2615:2634   */\n      0x84\n      add\n        /* \"LuckyTickets.sol\":855:970  require(... */\n    tag_113:\n      mload(0x40)\n      dup1\n      swap2\n      sub\n      swap1\n      revert\n    tag_112:\n        /* \"LuckyTickets.sol\":2904:2926  operatorTotalComisison */\n      0x02\n      dup1\n      sload\n        /* \"LuckyTickets.sol\":2817:2841  address payable operator */\n      0x00\n        /* \"LuckyTickets.sol\":2937:2963  operatorTotalComisison = 0 */\n      swap2\n      dup3\n      swap1\n      sstore\n        /* \"LuckyTickets.sol\":2974:3012  operator.transfer(commission2Transfer) */\n      mload(0x40)\n        /* \"LuckyTickets.sol\":2852:2862  msg.sender */\n      caller\n      swap3\n      dup4\n      swap2\n        /* \"LuckyTickets.sol\":2974:3012  operator.transfer(commission2Transfer) */\n      dup4\n      iszero\n      0x08fc\n      mul\n      swap2\n        /* \"LuckyTickets.sol\":2904:2926  operatorTotalComisison */\n      dup5\n      swap2\n        /* \"LuckyTickets.sol\":2974:3012  operator.transfer(commission2Transfer) */\n      swap1\n      dup2\n        /* \"LuckyTickets.sol\":2817:2841  address payable operator */\n      dup2\n        /* \"LuckyTickets.sol\":2974:3012  operator.transfer(commission2Transfer) */\n      dup2\n        /* \"LuckyTickets.sol\":2904:2926  operatorTotalComisison */\n      dup6\n        /* \"LuckyTickets.sol\":2852:2862  msg.sender */\n      dup9\n        /* \"LuckyTickets.sol\":2974:3012  operator.transfer(commission2Transfer) */\n      dup9\n      call\n      swap4\n      pop\n      pop\n      pop\n      pop\n      iszero\n      dup1\n      iszero\n      tag_117\n      jumpi\n      returndatasize\n      0x00\n      dup1\n      returndatacopy\n      revert(0x00, returndatasize)\n    tag_117:\n      pop\n        /* \"LuckyTickets.sol\":2806:3020  {... */\n      pop\n      pop\n        /* \"LuckyTickets.sol\":2759:3020  function withdrawComission() public isOperator {... */\n      jump\t// out\n        /* \"LuckyTickets.sol\":1467:1561  function getTickets() public view returns (address[] memory) {... */\n    tag_57:\n        /* \"LuckyTickets.sol\":1510:1526  address[] memory */\n      0x60\n        /* \"LuckyTickets.sol\":1546:1553  tickets */\n      0x03\n        /* \"LuckyTickets.sol\":1539:1553  return tickets */\n      dup1\n      sload\n      dup1\n      0x20\n      mul\n      0x20\n      add\n      mload(0x40)\n      swap1\n      dup2\n      add\n      0x40\n      mstore\n      dup1\n      swap3\n      swap2\n      swap1\n      dup2\n      dup2\n      mstore\n      0x20\n      add\n      dup3\n      dup1\n      sload\n      dup1\n      iszero\n      tag_119\n      jumpi\n      0x20\n      mul\n      dup3\n      add\n      swap2\n      swap1\n      0x00\n      mstore\n      keccak256(0x00, 0x20)\n      swap1\n    tag_120:\n      dup2\n      sload\n      sub(shl(0xa0, 0x01), 0x01)\n      and\n      dup2\n      mstore\n      0x01\n      swap1\n      swap2\n      add\n      swap1\n      0x20\n      add\n      dup1\n      dup4\n      gt\n      tag_120\n      jumpi\n    tag_119:\n      pop\n      pop\n      pop\n      pop\n      pop\n      swap1\n      pop\n        /* \"LuckyTickets.sol\":1467:1561  function getTickets() public view returns (address[] memory) {... */\n      swap1\n      jump\t// out\n        /* \"LuckyTickets.sol\":375:399  address[] public tickets */\n    tag_64:\n      0x03\n      dup2\n      dup2\n      sload\n      dup2\n      lt\n      tag_121\n      jumpi\n      0x00\n      dup1\n      revert\n    tag_121:\n      0x00\n      swap2\n      dup3\n      mstore\n      0x20\n      swap1\n      swap2\n      keccak256\n      add\n      sload\n      sub(shl(0xa0, 0x01), 0x01)\n      and\n      swap1\n      pop\n      dup2\n      jump\t// out\n        /* \"LuckyTickets.sol\":1803:2536  function drawWinnerTicket() public isOperator {... */\n    tag_78:\n        /* \"LuckyTickets.sol\":892:907  lotteryOperator */\n      and(sub(shl(0xa0, 0x01), 0x01), sload(0x01))\n        /* \"LuckyTickets.sol\":878:888  msg.sender */\n      caller\n        /* \"LuckyTickets.sol\":878:907  msg.sender == lotteryOperator */\n      eq\n        /* \"LuckyTickets.sol\":855:970  require(... */\n      tag_125\n      jumpi\n      mload(0x40)\n      shl(0xe5, 0x461bcd)\n      dup2\n      mstore\n        /* \"#utility.yul\":2444:2446   */\n      0x20\n        /* \"LuckyTickets.sol\":855:970  require(... */\n      0x04\n      dup3\n      add\n        /* \"#utility.yul\":2426:2447   */\n      mstore\n        /* \"#utility.yul\":2483:2485   */\n      0x22\n        /* \"#utility.yul\":2463:2481   */\n      0x24\n      dup3\n      add\n        /* \"#utility.yul\":2456:2486   */\n      mstore\n        /* \"#utility.yul\":2522:2556   */\n      0x63616c6c6572206973206e6f7420746865206c6f7465727279206f7065726174\n        /* \"#utility.yul\":2502:2520   */\n      0x44\n      dup3\n      add\n        /* \"#utility.yul\":2495:2557   */\n      mstore\n      shl(0xf1, 0x37b9)\n        /* \"#utility.yul\":2573:2591   */\n      0x64\n      dup3\n      add\n        /* \"#utility.yul\":2566:2598   */\n      mstore\n        /* \"#utility.yul\":2615:2634   */\n      0x84\n      add\n        /* \"LuckyTickets.sol\":855:970  require(... */\n      tag_113\n        /* \"#utility.yul\":2242:2640   */\n      jump\n        /* \"LuckyTickets.sol\":855:970  require(... */\n    tag_125:\n        /* \"LuckyTickets.sol\":1868:1875  tickets */\n      0x03\n        /* \"LuckyTickets.sol\":1868:1882  tickets.length */\n      sload\n        /* \"LuckyTickets.sol\":1860:1915  require(tickets.length > 0, \"no ticket were purchased\") */\n      tag_128\n      jumpi\n      mload(0x40)\n      shl(0xe5, 0x461bcd)\n      dup2\n      mstore\n        /* \"#utility.yul\":2847:2849   */\n      0x20\n        /* \"LuckyTickets.sol\":1860:1915  require(tickets.length > 0, \"no ticket were purchased\") */\n      0x04\n      dup3\n      add\n        /* \"#utility.yul\":2829:2850   */\n      mstore\n        /* \"#utility.yul\":2886:2888   */\n      0x18\n        /* \"#utility.yul\":2866:2884   */\n      0x24\n      dup3\n      add\n        /* \"#utility.yul\":2859:2889   */\n      mstore\n        /* \"#utility.yul\":2925:2951   */\n      0x6e6f207469636b65742077657265207075726368617365640000000000000000\n        /* \"#utility.yul\":2905:2923   */\n      0x44\n      dup3\n      add\n        /* \"#utility.yul\":2898:2952   */\n      mstore\n        /* \"#utility.yul\":2969:2987   */\n      0x64\n      add\n        /* \"LuckyTickets.sol\":1860:1915  require(tickets.length > 0, \"no ticket were purchased\") */\n      tag_113\n        /* \"#utility.yul\":2645:2993   */\n      jump\n        /* \"LuckyTickets.sol\":1860:1915  require(tickets.length > 0, \"no ticket were purchased\") */\n    tag_128:\n        /* \"LuckyTickets.sol\":1971:1978  tickets */\n      0x03\n        /* \"LuckyTickets.sol\":1971:1985  tickets.length */\n      sload\n        /* \"LuckyTickets.sol\":1926:1943  bytes32 blockHash */\n      0x00\n      swap1\n        /* \"LuckyTickets.sol\":1956:1985  block.number - tickets.length */\n      tag_131\n      swap1\n        /* \"LuckyTickets.sol\":1956:1968  block.number */\n      number\n        /* \"LuckyTickets.sol\":1956:1985  block.number - tickets.length */\n      tag_108\n      jump\t// in\n    tag_131:\n        /* \"LuckyTickets.sol\":2052:2096  abi.encodePacked(block.timestamp, blockHash) */\n      0x40\n      dup1\n      mload\n        /* \"LuckyTickets.sol\":2069:2084  block.timestamp */\n      timestamp\n        /* \"LuckyTickets.sol\":2052:2096  abi.encodePacked(block.timestamp, blockHash) */\n      0x20\n      dup3\n      add\n        /* \"#utility.yul\":3155:3174   */\n      mstore\n        /* \"LuckyTickets.sol\":1946:1986  blockhash(block.number - tickets.length) */\n      swap2\n      blockhash\n        /* \"#utility.yul\":3190:3202   */\n      swap1\n      dup3\n      add\n        /* \"#utility.yul\":3183:3211   */\n      dup2\n      swap1\n      mstore\n        /* \"LuckyTickets.sol\":1946:1986  blockhash(block.number - tickets.length) */\n      swap2\n      pop\n        /* \"LuckyTickets.sol\":1997:2017  uint256 randomNumber */\n      0x00\n      swap1\n        /* \"#utility.yul\":3227:3239   */\n      0x60\n      add\n        /* \"LuckyTickets.sol\":2052:2096  abi.encodePacked(block.timestamp, blockHash) */\n      0x40\n      dup1\n      mload\n      not(0x1f)\n      dup2\n      dup5\n      sub\n      add\n      dup2\n      mstore\n      swap2\n      swap1\n      mstore\n        /* \"LuckyTickets.sol\":2042:2097  keccak256(abi.encodePacked(block.timestamp, blockHash)) */\n      dup1\n      mload\n        /* \"LuckyTickets.sol\":2052:2096  abi.encodePacked(block.timestamp, blockHash) */\n      0x20\n        /* \"LuckyTickets.sol\":2042:2097  keccak256(abi.encodePacked(block.timestamp, blockHash)) */\n      swap1\n      swap2\n      add\n      keccak256\n        /* \"LuckyTickets.sol\":2158:2165  tickets */\n      0x03\n        /* \"LuckyTickets.sol\":2158:2172  tickets.length */\n      sload\n        /* \"LuckyTickets.sol\":2042:2097  keccak256(abi.encodePacked(block.timestamp, blockHash)) */\n      swap1\n      swap2\n      pop\n        /* \"LuckyTickets.sol\":2020:2108  uint256(... */\n      0x00\n      swap1\n        /* \"LuckyTickets.sol\":2143:2172  randomNumber % tickets.length */\n      tag_134\n      swap1\n        /* \"LuckyTickets.sol\":2042:2097  keccak256(abi.encodePacked(block.timestamp, blockHash)) */\n      dup4\n        /* \"LuckyTickets.sol\":2143:2172  randomNumber % tickets.length */\n      tag_135\n      jump\t// in\n    tag_134:\n        /* \"LuckyTickets.sol\":2119:2172  uint256 winningTicket = randomNumber % tickets.length */\n      swap1\n      pop\n        /* \"LuckyTickets.sol\":2185:2199  address winner */\n      0x00\n        /* \"LuckyTickets.sol\":2202:2209  tickets */\n      0x03\n        /* \"LuckyTickets.sol\":2210:2223  winningTicket */\n      dup3\n        /* \"LuckyTickets.sol\":2202:2224  tickets[winningTicket] */\n      dup2\n      sload\n      dup2\n      lt\n      tag_137\n      jumpi\n      tag_137\n      tag_138\n      jump\t// in\n    tag_137:\n      0x00\n      swap2\n      dup3\n      mstore\n      0x20\n      swap1\n      swap2\n      keccak256\n      add\n      sload\n        /* \"LuckyTickets.sol\":2235:2245  lastWinner */\n      0x05\n        /* \"LuckyTickets.sol\":2235:2254  lastWinner = winner */\n      dup1\n      sload\n      not(0xffffffffffffffffffffffffffffffffffffffff)\n      and\n      sub(shl(0xa0, 0x01), 0x01)\n        /* \"LuckyTickets.sol\":2202:2224  tickets[winningTicket] */\n      swap1\n      swap3\n      and\n        /* \"LuckyTickets.sol\":2235:2254  lastWinner = winner */\n      swap2\n      dup3\n      or\n      swap1\n      sstore\n        /* \"LuckyTickets.sol\":2202:2224  tickets[winningTicket] */\n      swap1\n      pop\n        /* \"LuckyTickets.sol\":2304:2333  ticketPrice - ticketComission */\n      tag_140\n        /* \"LuckyTickets.sol\":188:199  0.001 ether */\n      0x038d7ea4c68000\n        /* \"LuckyTickets.sol\":129:139  0.01 ether */\n      0x2386f26fc10000\n        /* \"LuckyTickets.sol\":2304:2333  ticketPrice - ticketComission */\n      tag_108\n      jump\t// in\n    tag_140:\n        /* \"LuckyTickets.sol\":2286:2293  tickets */\n      0x03\n        /* \"LuckyTickets.sol\":2286:2300  tickets.length */\n      sload\n        /* \"LuckyTickets.sol\":2286:2334  tickets.length * (ticketPrice - ticketComission) */\n      tag_141\n      swap2\n      swap1\n      tag_110\n      jump\t// in\n    tag_141:\n      sub(shl(0xa0, 0x01), 0x01)\n        /* \"LuckyTickets.sol\":2265:2281  winnings[winner] */\n      dup3\n      and\n      0x00\n      swap1\n      dup2\n      mstore\n        /* \"LuckyTickets.sol\":2265:2273  winnings */\n      0x04\n        /* \"LuckyTickets.sol\":2265:2281  winnings[winner] */\n      0x20\n      mstore\n      0x40\n      dup2\n      keccak256\n        /* \"LuckyTickets.sol\":2265:2335  winnings[winner] += (tickets.length * (ticketPrice - ticketComission)) */\n      dup1\n      sload\n        /* \"LuckyTickets.sol\":2265:2281  winnings[winner] */\n      swap1\n      swap2\n      swap1\n        /* \"LuckyTickets.sol\":2265:2335  winnings[winner] += (tickets.length * (ticketPrice - ticketComission)) */\n      tag_142\n      swap1\n      dup5\n      swap1\n      tag_143\n      jump\t// in\n    tag_142:\n      swap1\n      swap2\n      sstore\n      pop\n      pop\n      sub(shl(0xa0, 0x01), 0x01)\n        /* \"LuckyTickets.sol\":2365:2381  winnings[winner] */\n      dup2\n      and\n      0x00\n      swap1\n      dup2\n      mstore\n        /* \"LuckyTickets.sol\":2365:2373  winnings */\n      0x04\n        /* \"LuckyTickets.sol\":2365:2381  winnings[winner] */\n      0x20\n      mstore\n      0x40\n      swap1\n      keccak256\n      sload\n        /* \"LuckyTickets.sol\":2346:2362  lastWinnerAmount */\n      0x06\n        /* \"LuckyTickets.sol\":2346:2381  lastWinnerAmount = winnings[winner] */\n      sstore\n        /* \"LuckyTickets.sol\":2420:2427  tickets */\n      0x03\n        /* \"LuckyTickets.sol\":2420:2434  tickets.length */\n      sload\n        /* \"LuckyTickets.sol\":2420:2452  tickets.length * ticketComission */\n      tag_144\n      swap1\n        /* \"LuckyTickets.sol\":188:199  0.001 ether */\n      0x038d7ea4c68000\n      swap1\n        /* \"LuckyTickets.sol\":2420:2452  tickets.length * ticketComission */\n      tag_110\n      jump\t// in\n    tag_144:\n        /* \"LuckyTickets.sol\":2393:2415  operatorTotalComisison */\n      0x02\n      0x00\n        /* \"LuckyTickets.sol\":2393:2453  operatorTotalComisison += (tickets.length * ticketComission) */\n      dup3\n      dup3\n      sload\n      tag_145\n      swap2\n      swap1\n      tag_143\n      jump\t// in\n    tag_145:\n      swap1\n      swap2\n      sstore\n      pop\n        /* \"LuckyTickets.sol\":2464:2478  delete tickets */\n      tag_146\n      swap1\n      pop\n        /* \"LuckyTickets.sol\":2471:2478  tickets */\n      0x03\n      0x00\n        /* \"LuckyTickets.sol\":2464:2478  delete tickets */\n      tag_147\n      jump\t// in\n    tag_146:\n        /* \"LuckyTickets.sol\":2502:2528  block.timestamp + duration */\n      tag_148\n        /* \"LuckyTickets.sol\":241:249  24 hours */\n      0x015180\n        /* \"LuckyTickets.sol\":2502:2517  block.timestamp */\n      timestamp\n        /* \"LuckyTickets.sol\":2502:2528  block.timestamp + duration */\n      tag_143\n      jump\t// in\n    tag_148:\n        /* \"LuckyTickets.sol\":2489:2499  expiration */\n      0x00\n        /* \"LuckyTickets.sol\":2489:2528  expiration = block.timestamp + duration */\n      sstore\n      pop\n      pop\n      pop\n      pop\n        /* \"LuckyTickets.sol\":1803:2536  function drawWinnerTicket() public isOperator {... */\n      jump\t// out\n        /* \"LuckyTickets.sol\":1106:1459  function buyTickets() public payable isNotOperator {... */\n    tag_80:\n        /* \"LuckyTickets.sol\":720:735  lotteryOperator */\n      and(sub(shl(0xa0, 0x01), 0x01), sload(0x01))\n        /* \"LuckyTickets.sol\":706:716  msg.sender */\n      caller\n        /* \"LuckyTickets.sol\":706:735  msg.sender != lotteryOperator */\n      sub\n        /* \"LuckyTickets.sol\":683:794  require(... */\n      tag_150\n      jumpi\n      mload(0x40)\n      shl(0xe5, 0x461bcd)\n      dup2\n      mstore\n        /* \"#utility.yul\":3963:3965   */\n      0x20\n        /* \"LuckyTickets.sol\":683:794  require(... */\n      0x04\n      dup3\n      add\n        /* \"#utility.yul\":3945:3966   */\n      mstore\n        /* \"#utility.yul\":4002:4004   */\n      0x1e\n        /* \"#utility.yul\":3982:4000   */\n      0x24\n      dup3\n      add\n        /* \"#utility.yul\":3975:4005   */\n      mstore\n        /* \"#utility.yul\":4041:4073   */\n      0x63616c6c657220697320746865206c6f7465727279206f70657261746f720000\n        /* \"#utility.yul\":4021:4039   */\n      0x44\n      dup3\n      add\n        /* \"#utility.yul\":4014:4074   */\n      mstore\n        /* \"#utility.yul\":4091:4109   */\n      0x64\n      add\n        /* \"LuckyTickets.sol\":683:794  require(... */\n      tag_113\n        /* \"#utility.yul\":3761:4115   */\n      jump\n        /* \"LuckyTickets.sol\":683:794  require(... */\n    tag_150:\n        /* \"LuckyTickets.sol\":1190:1213  msg.value % ticketPrice */\n      tag_154\n        /* \"LuckyTickets.sol\":129:139  0.01 ether */\n      0x2386f26fc10000\n        /* \"LuckyTickets.sol\":1190:1199  msg.value */\n      callvalue\n        /* \"LuckyTickets.sol\":1190:1213  msg.value % ticketPrice */\n      tag_135\n      jump\t// in\n    tag_154:\n        /* \"LuckyTickets.sol\":1190:1218  msg.value % ticketPrice == 0 */\n      iszero\n        /* \"LuckyTickets.sol\":1168:1280  require(... */\n      tag_155\n      jumpi\n      mload(0x40)\n      shl(0xe5, 0x461bcd)\n      dup2\n      mstore\n        /* \"#utility.yul\":4322:4324   */\n      0x20\n        /* \"LuckyTickets.sol\":1168:1280  require(... */\n      0x04\n      dup3\n      add\n        /* \"#utility.yul\":4304:4325   */\n      mstore\n        /* \"#utility.yul\":4361:4363   */\n      0x22\n        /* \"#utility.yul\":4341:4359   */\n      0x24\n      dup3\n      add\n        /* \"#utility.yul\":4334:4364   */\n      mstore\n        /* \"#utility.yul\":4400:4434   */\n      0x7468652076616c7565206d757374206265206d756c7469706c65206f6620302e\n        /* \"#utility.yul\":4380:4398   */\n      0x44\n      dup3\n      add\n        /* \"#utility.yul\":4373:4435   */\n      mstore\n      shl(0xf0, 0x3031)\n        /* \"#utility.yul\":4451:4469   */\n      0x64\n      dup3\n      add\n        /* \"#utility.yul\":4444:4476   */\n      mstore\n        /* \"#utility.yul\":4493:4512   */\n      0x84\n      add\n        /* \"LuckyTickets.sol\":1168:1280  require(... */\n      tag_113\n        /* \"#utility.yul\":4120:4518   */\n      jump\n        /* \"LuckyTickets.sol\":1168:1280  require(... */\n    tag_155:\n        /* \"LuckyTickets.sol\":1291:1316  uint256 numOfTicketsToBuy */\n      0x00\n        /* \"LuckyTickets.sol\":1319:1342  msg.value / ticketPrice */\n      tag_158\n        /* \"LuckyTickets.sol\":129:139  0.01 ether */\n      0x2386f26fc10000\n        /* \"LuckyTickets.sol\":1319:1328  msg.value */\n      callvalue\n        /* \"LuckyTickets.sol\":1319:1342  msg.value / ticketPrice */\n      tag_159\n      jump\t// in\n    tag_158:\n        /* \"LuckyTickets.sol\":1291:1342  uint256 numOfTicketsToBuy = msg.value / ticketPrice */\n      swap1\n      pop\n        /* \"LuckyTickets.sol\":1358:1367  uint256 i */\n      0x00\n        /* \"LuckyTickets.sol\":1353:1452  for (uint256 i = 0; i < numOfTicketsToBuy; i++) {... */\n    tag_160:\n        /* \"LuckyTickets.sol\":1377:1394  numOfTicketsToBuy */\n      dup2\n        /* \"LuckyTickets.sol\":1373:1374  i */\n      dup2\n        /* \"LuckyTickets.sol\":1373:1394  i < numOfTicketsToBuy */\n      lt\n        /* \"LuckyTickets.sol\":1353:1452  for (uint256 i = 0; i < numOfTicketsToBuy; i++) {... */\n      iszero\n      tag_161\n      jumpi\n        /* \"LuckyTickets.sol\":1416:1423  tickets */\n      0x03\n        /* \"LuckyTickets.sol\":1416:1440  tickets.push(msg.sender) */\n      dup1\n      sload\n      0x01\n      dup2\n      add\n      dup3\n      sstore\n      0x00\n      swap2\n      swap1\n      swap2\n      mstore\n      0xc2575a0e9e593c00f959f8c92f12db2869c3395a3b0502d05e2516446f71f85b\n      add\n      dup1\n      sload\n      not(0xffffffffffffffffffffffffffffffffffffffff)\n      and\n        /* \"LuckyTickets.sol\":1429:1439  msg.sender */\n      caller\n        /* \"LuckyTickets.sol\":1416:1440  tickets.push(msg.sender) */\n      or\n      swap1\n      sstore\n        /* \"LuckyTickets.sol\":1396:1399  i++ */\n      dup1\n      tag_164\n      dup2\n      tag_165\n      jump\t// in\n    tag_164:\n      swap2\n      pop\n      pop\n        /* \"LuckyTickets.sol\":1353:1452  for (uint256 i = 0; i < numOfTicketsToBuy; i++) {... */\n      jump(tag_160)\n    tag_161:\n      pop\n        /* \"LuckyTickets.sol\":1157:1459  {... */\n      pop\n        /* \"LuckyTickets.sol\":1106:1459  function buyTickets() public payable isNotOperator {... */\n      jump\t// out\n        /* \"LuckyTickets.sol\":3028:3270  function withdrawWinnings() public isWinner {... */\n    tag_83:\n        /* \"LuckyTickets.sol\":1772:1782  msg.sender */\n      caller\n        /* \"LuckyTickets.sol\":1739:1743  bool */\n      0x00\n        /* \"LuckyTickets.sol\":1763:1783  winnings[msg.sender] */\n      swap1\n      dup2\n      mstore\n        /* \"LuckyTickets.sol\":1763:1771  winnings */\n      0x04\n        /* \"LuckyTickets.sol\":1763:1783  winnings[msg.sender] */\n      0x20\n      mstore\n      0x40\n      swap1\n      keccak256\n      sload\n        /* \"LuckyTickets.sol\":1029:1078  require(senderIsWinner(), \"caller is not winner\") */\n      tag_168\n      jumpi\n      mload(0x40)\n      shl(0xe5, 0x461bcd)\n      dup2\n      mstore\n        /* \"#utility.yul\":4990:4992   */\n      0x20\n        /* \"LuckyTickets.sol\":1029:1078  require(senderIsWinner(), \"caller is not winner\") */\n      0x04\n      dup3\n      add\n        /* \"#utility.yul\":4972:4993   */\n      mstore\n        /* \"#utility.yul\":5029:5031   */\n      0x14\n        /* \"#utility.yul\":5009:5027   */\n      0x24\n      dup3\n      add\n        /* \"#utility.yul\":5002:5032   */\n      mstore\n        /* \"#utility.yul\":5068:5090   */\n      0x63616c6c6572206973206e6f742077696e6e6572000000000000000000000000\n        /* \"#utility.yul\":5048:5066   */\n      0x44\n      dup3\n      add\n        /* \"#utility.yul\":5041:5091   */\n      mstore\n        /* \"#utility.yul\":5108:5126   */\n      0x64\n      add\n        /* \"LuckyTickets.sol\":1029:1078  require(senderIsWinner(), \"caller is not winner\") */\n      tag_113\n        /* \"#utility.yul\":4788:5132   */\n      jump\n        /* \"LuckyTickets.sol\":1029:1078  require(senderIsWinner(), \"caller is not winner\") */\n    tag_168:\n        /* \"LuckyTickets.sol\":3116:3126  msg.sender */\n      caller\n        /* \"LuckyTickets.sol\":3083:3105  address payable winner */\n      0x00\n        /* \"LuckyTickets.sol\":3164:3184  winnings[msg.sender] */\n      dup2\n      dup2\n      mstore\n        /* \"LuckyTickets.sol\":3164:3172  winnings */\n      0x04\n        /* \"LuckyTickets.sol\":3164:3184  winnings[msg.sender] */\n      0x20\n      mstore\n      0x40\n      dup1\n      dup3\n      keccak256\n      dup1\n      sload\n        /* \"LuckyTickets.sol\":3195:3219  winnings[msg.sender] = 0 */\n      swap1\n      dup4\n      swap1\n      sstore\n        /* \"LuckyTickets.sol\":3230:3262  winner.transfer(reward2Transfer) */\n      swap1\n      mload\n        /* \"LuckyTickets.sol\":3164:3184  winnings[msg.sender] */\n      swap1\n      swap2\n        /* \"LuckyTickets.sol\":3116:3126  msg.sender */\n      dup4\n      swap2\n        /* \"LuckyTickets.sol\":3230:3262  winner.transfer(reward2Transfer) */\n      dup4\n      iszero\n      0x08fc\n      mul\n      swap2\n        /* \"LuckyTickets.sol\":3164:3184  winnings[msg.sender] */\n      dup5\n      swap2\n        /* \"LuckyTickets.sol\":3230:3262  winner.transfer(reward2Transfer) */\n      swap1\n      dup2\n        /* \"LuckyTickets.sol\":3083:3105  address payable winner */\n      dup2\n        /* \"LuckyTickets.sol\":3230:3262  winner.transfer(reward2Transfer) */\n      dup2\n        /* \"LuckyTickets.sol\":3164:3184  winnings[msg.sender] */\n      dup6\n        /* \"LuckyTickets.sol\":3116:3126  msg.sender */\n      dup9\n        /* \"LuckyTickets.sol\":3230:3262  winner.transfer(reward2Transfer) */\n      dup9\n      call\n      swap4\n      pop\n      pop\n      pop\n      pop\n      iszero\n      dup1\n      iszero\n      tag_117\n      jumpi\n      returndatasize\n      0x00\n      dup1\n      returndatacopy\n      revert(0x00, returndatasize)\n        /* \"LuckyTickets.sol\":2544:2751  function restartDraw() public isOperator {... */\n    tag_101:\n        /* \"LuckyTickets.sol\":892:907  lotteryOperator */\n      and(sub(shl(0xa0, 0x01), 0x01), sload(0x01))\n        /* \"LuckyTickets.sol\":878:888  msg.sender */\n      caller\n        /* \"LuckyTickets.sol\":878:907  msg.sender == lotteryOperator */\n      eq\n        /* \"LuckyTickets.sol\":855:970  require(... */\n      tag_176\n      jumpi\n      mload(0x40)\n      shl(0xe5, 0x461bcd)\n      dup2\n      mstore\n        /* \"#utility.yul\":2444:2446   */\n      0x20\n        /* \"LuckyTickets.sol\":855:970  require(... */\n      0x04\n      dup3\n      add\n        /* \"#utility.yul\":2426:2447   */\n      mstore\n        /* \"#utility.yul\":2483:2485   */\n      0x22\n        /* \"#utility.yul\":2463:2481   */\n      0x24\n      dup3\n      add\n        /* \"#utility.yul\":2456:2486   */\n      mstore\n        /* \"#utility.yul\":2522:2556   */\n      0x63616c6c6572206973206e6f7420746865206c6f7465727279206f7065726174\n        /* \"#utility.yul\":2502:2520   */\n      0x44\n      dup3\n      add\n        /* \"#utility.yul\":2495:2557   */\n      mstore\n      shl(0xf1, 0x37b9)\n        /* \"#utility.yul\":2573:2591   */\n      0x64\n      dup3\n      add\n        /* \"#utility.yul\":2566:2598   */\n      mstore\n        /* \"#utility.yul\":2615:2634   */\n      0x84\n      add\n        /* \"LuckyTickets.sol\":855:970  require(... */\n      tag_113\n        /* \"#utility.yul\":2242:2640   */\n      jump\n        /* \"LuckyTickets.sol\":855:970  require(... */\n    tag_176:\n        /* \"LuckyTickets.sol\":2604:2611  tickets */\n      0x03\n        /* \"LuckyTickets.sol\":2604:2618  tickets.length */\n      sload\n        /* \"LuckyTickets.sol\":2604:2623  tickets.length == 0 */\n      iszero\n        /* \"LuckyTickets.sol\":2596:2666  require(tickets.length == 0, \"cannot restart draw as draw is in play\") */\n      tag_179\n      jumpi\n      mload(0x40)\n      shl(0xe5, 0x461bcd)\n      dup2\n      mstore\n        /* \"#utility.yul\":5339:5341   */\n      0x20\n        /* \"LuckyTickets.sol\":2596:2666  require(tickets.length == 0, \"cannot restart draw as draw is in play\") */\n      0x04\n      dup3\n      add\n        /* \"#utility.yul\":5321:5342   */\n      mstore\n        /* \"#utility.yul\":5378:5380   */\n      0x26\n        /* \"#utility.yul\":5358:5376   */\n      0x24\n      dup3\n      add\n        /* \"#utility.yul\":5351:5381   */\n      mstore\n        /* \"#utility.yul\":5417:5451   */\n      0x63616e6e6f742072657374617274206472617720617320647261772069732069\n        /* \"#utility.yul\":5397:5415   */\n      0x44\n      dup3\n      add\n        /* \"#utility.yul\":5390:5452   */\n      mstore\n        /* \"#utility.yul\":5488:5496   */\n      0x6e20706c61790000000000000000000000000000000000000000000000000000\n        /* \"#utility.yul\":5468:5486   */\n      0x64\n      dup3\n      add\n        /* \"#utility.yul\":5461:5497   */\n      mstore\n        /* \"#utility.yul\":5514:5533   */\n      0x84\n      add\n        /* \"LuckyTickets.sol\":2596:2666  require(tickets.length == 0, \"cannot restart draw as draw is in play\") */\n      tag_113\n        /* \"#utility.yul\":5137:5539   */\n      jump\n        /* \"LuckyTickets.sol\":2596:2666  require(tickets.length == 0, \"cannot restart draw as draw is in play\") */\n    tag_179:\n        /* \"LuckyTickets.sol\":2679:2693  delete tickets */\n      tag_182\n        /* \"LuckyTickets.sol\":2686:2693  tickets */\n      0x03\n      0x00\n        /* \"LuckyTickets.sol\":2679:2693  delete tickets */\n      tag_147\n      jump\t// in\n    tag_182:\n        /* \"LuckyTickets.sol\":2717:2743  block.timestamp + duration */\n      tag_183\n        /* \"LuckyTickets.sol\":241:249  24 hours */\n      0x015180\n        /* \"LuckyTickets.sol\":2717:2732  block.timestamp */\n      timestamp\n        /* \"LuckyTickets.sol\":2717:2743  block.timestamp + duration */\n      tag_143\n      jump\t// in\n    tag_183:\n        /* \"LuckyTickets.sol\":2704:2714  expiration */\n      0x00\n        /* \"LuckyTickets.sol\":2704:2743  expiration = block.timestamp + duration */\n      sstore\n        /* \"LuckyTickets.sol\":2544:2751  function restartDraw() public isOperator {... */\n      jump\t// out\n    tag_147:\n      pop\n      dup1\n      sload\n      0x00\n      dup3\n      sstore\n      swap1\n      0x00\n      mstore\n      keccak256(0x00, 0x20)\n      swap1\n      dup2\n      add\n      swap1\n      tag_185\n      swap2\n      swap1\n      tag_186\n      jump\t// in\n    tag_185:\n      pop\n      jump\t// out\n    tag_186:\n    tag_187:\n      dup1\n      dup3\n      gt\n      iszero\n      tag_188\n      jumpi\n      0x00\n      dup2\n      sstore\n      0x01\n      add\n      jump(tag_187)\n    tag_188:\n      pop\n      swap1\n      jump\t// out\n        /* \"#utility.yul\":196:877   */\n    tag_59:\n        /* \"#utility.yul\":367:369   */\n      0x20\n        /* \"#utility.yul\":419:440   */\n      dup1\n      dup3\n      mstore\n        /* \"#utility.yul\":489:502   */\n      dup3\n      mload\n        /* \"#utility.yul\":392:410   */\n      dup3\n      dup3\n      add\n        /* \"#utility.yul\":511:533   */\n      dup2\n      swap1\n      mstore\n        /* \"#utility.yul\":338:342   */\n      0x00\n      swap2\n        /* \"#utility.yul\":367:369   */\n      swap1\n        /* \"#utility.yul\":590:605   */\n      dup5\n      dup3\n      add\n      swap1\n        /* \"#utility.yul\":564:566   */\n      0x40\n        /* \"#utility.yul\":549:567   */\n      dup6\n      add\n      swap1\n        /* \"#utility.yul\":338:342   */\n      dup5\n        /* \"#utility.yul\":633:851   */\n    tag_194:\n        /* \"#utility.yul\":647:653   */\n      dup2\n        /* \"#utility.yul\":644:645   */\n      dup2\n        /* \"#utility.yul\":641:654   */\n      lt\n        /* \"#utility.yul\":633:851   */\n      iszero\n      tag_196\n      jumpi\n        /* \"#utility.yul\":712:725   */\n      dup4\n      mload\n      sub(shl(0xa0, 0x01), 0x01)\n        /* \"#utility.yul\":708:770   */\n      and\n        /* \"#utility.yul\":696:771   */\n      dup4\n      mstore\n        /* \"#utility.yul\":826:841   */\n      swap3\n      dup5\n      add\n      swap3\n        /* \"#utility.yul\":791:803   */\n      swap2\n      dup5\n      add\n      swap2\n        /* \"#utility.yul\":669:670   */\n      0x01\n        /* \"#utility.yul\":662:671   */\n      add\n        /* \"#utility.yul\":633:851   */\n      jump(tag_194)\n    tag_196:\n      pop\n        /* \"#utility.yul\":868:871   */\n      swap1\n      swap7\n        /* \"#utility.yul\":196:877   */\n      swap6\n      pop\n      pop\n      pop\n      pop\n      pop\n      pop\n      jump\t// out\n        /* \"#utility.yul\":882:1062   */\n    tag_63:\n        /* \"#utility.yul\":941:947   */\n      0x00\n        /* \"#utility.yul\":994:996   */\n      0x20\n        /* \"#utility.yul\":982:991   */\n      dup3\n        /* \"#utility.yul\":973:980   */\n      dup5\n        /* \"#utility.yul\":969:992   */\n      sub\n        /* \"#utility.yul\":965:997   */\n      slt\n        /* \"#utility.yul\":962:1014   */\n      iszero\n      tag_198\n      jumpi\n        /* \"#utility.yul\":1010:1011   */\n      0x00\n        /* \"#utility.yul\":1007:1008   */\n      dup1\n        /* \"#utility.yul\":1000:1012   */\n      revert\n        /* \"#utility.yul\":962:1014   */\n    tag_198:\n      pop\n        /* \"#utility.yul\":1033:1056   */\n      calldataload\n      swap2\n        /* \"#utility.yul\":882:1062   */\n      swap1\n      pop\n      jump\t// out\n        /* \"#utility.yul\":1490:1799   */\n    tag_91:\n        /* \"#utility.yul\":1549:1555   */\n      0x00\n        /* \"#utility.yul\":1602:1604   */\n      0x20\n        /* \"#utility.yul\":1590:1599   */\n      dup3\n        /* \"#utility.yul\":1581:1588   */\n      dup5\n        /* \"#utility.yul\":1577:1600   */\n      sub\n        /* \"#utility.yul\":1573:1605   */\n      slt\n        /* \"#utility.yul\":1570:1622   */\n      iszero\n      tag_202\n      jumpi\n        /* \"#utility.yul\":1618:1619   */\n      0x00\n        /* \"#utility.yul\":1615:1616   */\n      dup1\n        /* \"#utility.yul\":1608:1620   */\n      revert\n        /* \"#utility.yul\":1570:1622   */\n    tag_202:\n        /* \"#utility.yul\":1657:1666   */\n      dup2\n        /* \"#utility.yul\":1644:1667   */\n      calldataload\n      sub(shl(0xa0, 0x01), 0x01)\n        /* \"#utility.yul\":1700:1705   */\n      dup2\n        /* \"#utility.yul\":1696:1750   */\n      and\n        /* \"#utility.yul\":1689:1694   */\n      dup2\n        /* \"#utility.yul\":1686:1751   */\n      eq\n        /* \"#utility.yul\":1676:1769   */\n      tag_203\n      jumpi\n        /* \"#utility.yul\":1765:1766   */\n      0x00\n        /* \"#utility.yul\":1762:1763   */\n      dup1\n        /* \"#utility.yul\":1755:1767   */\n      revert\n        /* \"#utility.yul\":1676:1769   */\n    tag_203:\n        /* \"#utility.yul\":1788:1793   */\n      swap4\n        /* \"#utility.yul\":1490:1799   */\n      swap3\n      pop\n      pop\n      pop\n      jump\t// out\n        /* \"#utility.yul\":1804:1931   */\n    tag_189:\n        /* \"#utility.yul\":1865:1875   */\n      0x4e487b71\n        /* \"#utility.yul\":1860:1863   */\n      0xe0\n        /* \"#utility.yul\":1856:1876   */\n      shl\n        /* \"#utility.yul\":1853:1854   */\n      0x00\n        /* \"#utility.yul\":1846:1877   */\n      mstore\n        /* \"#utility.yul\":1896:1900   */\n      0x11\n        /* \"#utility.yul\":1893:1894   */\n      0x04\n        /* \"#utility.yul\":1886:1901   */\n      mstore\n        /* \"#utility.yul\":1920:1924   */\n      0x24\n        /* \"#utility.yul\":1917:1918   */\n      0x00\n        /* \"#utility.yul\":1910:1925   */\n      revert\n        /* \"#utility.yul\":1936:2064   */\n    tag_108:\n        /* \"#utility.yul\":2003:2012   */\n      dup2\n      dup2\n      sub\n        /* \"#utility.yul\":2024:2035   */\n      dup2\n      dup2\n      gt\n        /* \"#utility.yul\":2021:2058   */\n      iszero\n      tag_207\n      jumpi\n        /* \"#utility.yul\":2038:2056   */\n      tag_207\n      tag_189\n      jump\t// in\n    tag_207:\n        /* \"#utility.yul\":1936:2064   */\n      swap3\n      swap2\n      pop\n      pop\n      jump\t// out\n        /* \"#utility.yul\":2069:2237   */\n    tag_110:\n        /* \"#utility.yul\":2142:2151   */\n      dup1\n      dup3\n      mul\n        /* \"#utility.yul\":2173:2182   */\n      dup2\n      iszero\n        /* \"#utility.yul\":2190:2205   */\n      dup3\n      dup3\n      div\n        /* \"#utility.yul\":2184:2206   */\n      dup5\n      eq\n        /* \"#utility.yul\":2170:2207   */\n      or\n        /* \"#utility.yul\":2160:2231   */\n      tag_207\n      jumpi\n        /* \"#utility.yul\":2211:2229   */\n      tag_207\n      tag_189\n      jump\t// in\n        /* \"#utility.yul\":3250:3377   */\n    tag_190:\n        /* \"#utility.yul\":3311:3321   */\n      0x4e487b71\n        /* \"#utility.yul\":3306:3309   */\n      0xe0\n        /* \"#utility.yul\":3302:3322   */\n      shl\n        /* \"#utility.yul\":3299:3300   */\n      0x00\n        /* \"#utility.yul\":3292:3323   */\n      mstore\n        /* \"#utility.yul\":3342:3346   */\n      0x12\n        /* \"#utility.yul\":3339:3340   */\n      0x04\n        /* \"#utility.yul\":3332:3347   */\n      mstore\n        /* \"#utility.yul\":3366:3370   */\n      0x24\n        /* \"#utility.yul\":3363:3364   */\n      0x00\n        /* \"#utility.yul\":3356:3371   */\n      revert\n        /* \"#utility.yul\":3382:3494   */\n    tag_135:\n        /* \"#utility.yul\":3414:3415   */\n      0x00\n        /* \"#utility.yul\":3440:3441   */\n      dup3\n        /* \"#utility.yul\":3430:3465   */\n      tag_217\n      jumpi\n        /* \"#utility.yul\":3445:3463   */\n      tag_217\n      tag_190\n      jump\t// in\n    tag_217:\n      pop\n        /* \"#utility.yul\":3479:3488   */\n      mod\n      swap1\n        /* \"#utility.yul\":3382:3494   */\n      jump\t// out\n        /* \"#utility.yul\":3499:3626   */\n    tag_138:\n        /* \"#utility.yul\":3560:3570   */\n      0x4e487b71\n        /* \"#utility.yul\":3555:3558   */\n      0xe0\n        /* \"#utility.yul\":3551:3571   */\n      shl\n        /* \"#utility.yul\":3548:3549   */\n      0x00\n        /* \"#utility.yul\":3541:3572   */\n      mstore\n        /* \"#utility.yul\":3591:3595   */\n      0x32\n        /* \"#utility.yul\":3588:3589   */\n      0x04\n        /* \"#utility.yul\":3581:3596   */\n      mstore\n        /* \"#utility.yul\":3615:3619   */\n      0x24\n        /* \"#utility.yul\":3612:3613   */\n      0x00\n        /* \"#utility.yul\":3605:3620   */\n      revert\n        /* \"#utility.yul\":3631:3756   */\n    tag_143:\n        /* \"#utility.yul\":3696:3705   */\n      dup1\n      dup3\n      add\n        /* \"#utility.yul\":3717:3727   */\n      dup1\n      dup3\n      gt\n        /* \"#utility.yul\":3714:3750   */\n      iszero\n      tag_207\n      jumpi\n        /* \"#utility.yul\":3730:3748   */\n      tag_207\n      tag_189\n      jump\t// in\n        /* \"#utility.yul\":4523:4643   */\n    tag_159:\n        /* \"#utility.yul\":4563:4564   */\n      0x00\n        /* \"#utility.yul\":4589:4590   */\n      dup3\n        /* \"#utility.yul\":4579:4614   */\n      tag_226\n      jumpi\n        /* \"#utility.yul\":4594:4612   */\n      tag_226\n      tag_190\n      jump\t// in\n    tag_226:\n      pop\n        /* \"#utility.yul\":4628:4637   */\n      div\n      swap1\n        /* \"#utility.yul\":4523:4643   */\n      jump\t// out\n        /* \"#utility.yul\":4648:4783   */\n    tag_165:\n        /* \"#utility.yul\":4687:4690   */\n      0x00\n        /* \"#utility.yul\":4708:4725   */\n      0x01\n      dup3\n      add\n        /* \"#utility.yul\":4705:4748   */\n      tag_229\n      jumpi\n        /* \"#utility.yul\":4728:4746   */\n      tag_229\n      tag_189\n      jump\t// in\n    tag_229:\n      pop\n        /* \"#utility.yul\":4775:4776   */\n      0x01\n        /* \"#utility.yul\":4764:4777   */\n      add\n      swap1\n        /* \"#utility.yul\":4648:4783   */\n      jump\t// out\n\n    auxdata: 0xa264697066735822122035ba2355c18ee100d1170781c95244bfb46ce640ee5c9e62be7553218f47a54e64736f6c63430008110033\n}\n",
        "bytecode": {
            "linkReferences": {},
            "object": "6080604052600060025534801561001557600080fd5b50600180546001600160a01b03191633179055610035620151804261003d565b600055610064565b8082018082111561005e57634e487b7160e01b600052601160045260246000fd5b92915050565b610baa806100736000396000f3fe6080604052600436106101445760003560e01c80635a58acdd116100c0578063d2d582f111610074578063ea3a149911610059578063ea3a149914610328578063f261326914610355578063fe1881841461036a57600080fd5b8063d2d582f1146102dc578063dd64e534146102f257600080fd5b80636894744e116100a55780636894744e146102aa578063c8199826146102bf578063cc42e83a146102c757600080fd5b80635a58acdd1461025b578063677a9e341461027b57600080fd5b806324aa5920116101175780634c62a644116100fc5780634c62a644146101ea5780634ed026221461020157806350b447121461022357600080fd5b806324aa5920146101b95780634665096d146101d457600080fd5b806306f7f3bf146101495780630fb5a6b4146101725780631209b1f6146101895780631d8d605b146101a4575b600080fd5b34801561015557600080fd5b5061015f60065481565b6040519081526020015b60405180910390f35b34801561017e57600080fd5b5061015f6201518081565b34801561019557600080fd5b5061015f662386f26fc1000081565b3480156101b057600080fd5b5061015f61038a565b3480156101c557600080fd5b5061015f66038d7ea4c6800081565b3480156101e057600080fd5b5061015f60005481565b3480156101f657600080fd5b506101ff6103b6565b005b34801561020d57600080fd5b5061021661045d565b6040516101699190610a18565b34801561022f57600080fd5b5061024361023e366004610a65565b6104bf565b6040516001600160a01b039091168152602001610169565b34801561026757600080fd5b50600154610243906001600160a01b031681565b34801561028757600080fd5b503360009081526004602052604090205415156040519015158152602001610169565b3480156102b657600080fd5b506101ff6104e9565b6101ff6106fe565b3480156102d357600080fd5b506101ff610846565b3480156102e857600080fd5b5061015f60025481565b3480156102fe57600080fd5b5061015f61030d366004610a7e565b6001600160a01b031660009081526004602052604090205490565b34801561033457600080fd5b5061015f610343366004610a7e565b60046020526000908152604090205481565b34801561036157600080fd5b506101ff6108e5565b34801561037657600080fd5b50600554610243906001600160a01b031681565b60006103a466038d7ea4c68000662386f26fc10000610ac4565b6003546103b19190610add565b905090565b6001546001600160a01b031633146104205760405162461bcd60e51b815260206004820152602260248201527f63616c6c6572206973206e6f7420746865206c6f7465727279206f706572617460448201526137b960f11b60648201526084015b60405180910390fd5b600280546000918290556040513392839183156108fc0291849190818181858888f19350505050158015610458573d6000803e3d6000fd5b505050565b606060038054806020026020016040519081016040528092919081815260200182805480156104b557602002820191906000526020600020905b81546001600160a01b03168152600190910190602001808311610497575b5050505050905090565b600381815481106104cf57600080fd5b6000918252602090912001546001600160a01b0316905081565b6001546001600160a01b0316331461054e5760405162461bcd60e51b815260206004820152602260248201527f63616c6c6572206973206e6f7420746865206c6f7465727279206f706572617460448201526137b960f11b6064820152608401610417565b60035461059d5760405162461bcd60e51b815260206004820152601860248201527f6e6f207469636b657420776572652070757263686173656400000000000000006044820152606401610417565b6003546000906105ad9043610ac4565b604080514260208201529140908201819052915060009060600160408051601f1981840301815291905280516020909101206003549091506000906105f29083610b0a565b905060006003828154811061060957610609610b1e565b6000918252602090912001546005805473ffffffffffffffffffffffffffffffffffffffff19166001600160a01b039092169182179055905061065a66038d7ea4c68000662386f26fc10000610ac4565b6003546106679190610add565b6001600160a01b0382166000908152600460205260408120805490919061068f908490610b34565b90915550506001600160a01b0381166000908152600460205260409020546006556003546106c59066038d7ea4c6800090610add565b600260008282546106d69190610b34565b909155506106e89050600360006109de565b6106f56201518042610b34565b60005550505050565b6001546001600160a01b031633036107585760405162461bcd60e51b815260206004820152601e60248201527f63616c6c657220697320746865206c6f7465727279206f70657261746f7200006044820152606401610417565b610769662386f26fc1000034610b0a565b156107c15760405162461bcd60e51b815260206004820152602260248201527f7468652076616c7565206d757374206265206d756c7469706c65206f6620302e604482015261303160f01b6064820152608401610417565b60006107d4662386f26fc1000034610b47565b905060005b8181101561084257600380546001810182556000919091527fc2575a0e9e593c00f959f8c92f12db2869c3395a3b0502d05e2516446f71f85b01805473ffffffffffffffffffffffffffffffffffffffff1916331790558061083a81610b5b565b9150506107d9565b5050565b336000908152600460205260409020546108a25760405162461bcd60e51b815260206004820152601460248201527f63616c6c6572206973206e6f742077696e6e65720000000000000000000000006044820152606401610417565b3360008181526004602052604080822080549083905590519091839183156108fc0291849190818181858888f19350505050158015610458573d6000803e3d6000fd5b6001546001600160a01b0316331461094a5760405162461bcd60e51b815260206004820152602260248201527f63616c6c6572206973206e6f7420746865206c6f7465727279206f706572617460448201526137b960f11b6064820152608401610417565b600354156109c05760405162461bcd60e51b815260206004820152602660248201527f63616e6e6f74207265737461727420647261772061732064726177206973206960448201527f6e20706c617900000000000000000000000000000000000000000000000000006064820152608401610417565b6109cc600360006109de565b6109d96201518042610b34565b600055565b50805460008255906000526020600020908101906109fc91906109ff565b50565b5b80821115610a145760008155600101610a00565b5090565b6020808252825182820181905260009190848201906040850190845b81811015610a595783516001600160a01b031683529284019291840191600101610a34565b50909695505050505050565b600060208284031215610a7757600080fd5b5035919050565b600060208284031215610a9057600080fd5b81356001600160a01b0381168114610aa757600080fd5b9392505050565b634e487b7160e01b600052601160045260246000fd5b81810381811115610ad757610ad7610aae565b92915050565b8082028115828204841417610ad757610ad7610aae565b634e487b7160e01b600052601260045260246000fd5b600082610b1957610b19610af4565b500690565b634e487b7160e01b600052603260045260246000fd5b80820180821115610ad757610ad7610aae565b600082610b5657610b56610af4565b500490565b600060018201610b6d57610b6d610aae565b506001019056fea264697066735822122035ba2355c18ee100d1170781c95244bfb46ce640ee5c9e62be7553218f47a54e64736f6c63430008110033",
            "opcodes": "PUSH1 0x80 PUSH1 0x40 MSTORE PUSH1 0x0 PUSH1 0x2 SSTORE CALLVALUE DUP1 ISZERO PUSH2 0x15 JUMPI PUSH1 0x0 DUP1 REVERT JUMPDEST POP PUSH1 0x1 DUP1 SLOAD PUSH1 0x1 PUSH1 0x1 PUSH1 0xA0 SHL SUB NOT AND CALLER OR SWAP1 SSTORE PUSH2 0x35 PUSH3 0x15180 TIMESTAMP PUSH2 0x3D JUMP JUMPDEST PUSH1 0x0 SSTORE PUSH2 0x64 JUMP JUMPDEST DUP1 DUP3 ADD DUP1 DUP3 GT ISZERO PUSH2 0x5E JUMPI PUSH4 0x4E487B71 PUSH1 0xE0 SHL PUSH1 0x0 MSTORE PUSH1 0x11 PUSH1 0x4 MSTORE PUSH1 0x24 PUSH1 0x0 REVERT JUMPDEST SWAP3 SWAP2 POP POP JUMP JUMPDEST PUSH2 0xBAA DUP1 PUSH2 0x73 PUSH1 0x0 CODECOPY PUSH1 0x0 RETURN INVALID PUSH1 0x80 PUSH1 0x40 MSTORE PUSH1 0x4 CALLDATASIZE LT PUSH2 0x144 JUMPI PUSH1 0x0 CALLDATALOAD PUSH1 0xE0 SHR DUP1 PUSH4 0x5A58ACDD GT PUSH2 0xC0 JUMPI DUP1 PUSH4 0xD2D582F1 GT PUSH2 0x74 JUMPI DUP1 PUSH4 0xEA3A1499 GT PUSH2 0x59 JUMPI DUP1 PUSH4 0xEA3A1499 EQ PUSH2 0x328 JUMPI DUP1 PUSH4 0xF2613269 EQ PUSH2 0x355 JUMPI DUP1 PUSH4 0xFE188184 EQ PUSH2 0x36A JUMPI PUSH1 0x0 DUP1 REVERT JUMPDEST DUP1 PUSH4 0xD2D582F1 EQ PUSH2 0x2DC JUMPI DUP1 PUSH4 0xDD64E534 EQ PUSH2 0x2F2 JUMPI PUSH1 0x0 DUP1 REVERT JUMPDEST DUP1 PUSH4 0x6894744E GT PUSH2 0xA5 JUMPI DUP1 PUSH4 0x6894744E EQ PUSH2 0x2AA JUMPI DUP1 PUSH4 0xC8199826 EQ PUSH2 0x2BF JUMPI DUP1 PUSH4 0xCC42E83A EQ PUSH2 0x2C7 JUMPI PUSH1 0x0 DUP1 REVERT JUMPDEST DUP1 PUSH4 0x5A58ACDD EQ PUSH2 0x25B JUMPI DUP1 PUSH4 0x677A9E34 EQ PUSH2 0x27B JUMPI PUSH1 0x0 DUP1 REVERT JUMPDEST DUP1 PUSH4 0x24AA5920 GT PUSH2 0x117 JUMPI DUP1 PUSH4 0x4C62A644 GT PUSH2 0xFC JUMPI DUP1 PUSH4 0x4C62A644 EQ PUSH2 0x1EA JUMPI DUP1 PUSH4 0x4ED02622 EQ PUSH2 0x201 JUMPI DUP1 PUSH4 0x50B44712 EQ PUSH2 0x223 JUMPI PUSH1 0x0 DUP1 REVERT JUMPDEST DUP1 PUSH4 0x24AA5920 EQ PUSH2 0x1B9 JUMPI DUP1 PUSH4 0x4665096D EQ PUSH2 0x1D4 JUMPI PUSH1 0x0 DUP1 REVERT JUMPDEST DUP1 PUSH4 0x6F7F3BF EQ PUSH2 0x149 JUMPI DUP1 PUSH4 0xFB5A6B4 EQ PUSH2 0x172 JUMPI DUP1 PUSH4 0x1209B1F6 EQ PUSH2 0x189 JUMPI DUP1 PUSH4 0x1D8D605B EQ PUSH2 0x1A4 JUMPI JUMPDEST PUSH1 0x0 DUP1 REVERT JUMPDEST CALLVALUE DUP1 ISZERO PUSH2 0x155 JUMPI PUSH1 0x0 DUP1 REVERT JUMPDEST POP PUSH2 0x15F PUSH1 0x6 SLOAD DUP2 JUMP JUMPDEST PUSH1 0x40 MLOAD SWAP1 DUP2 MSTORE PUSH1 0x20 ADD JUMPDEST PUSH1 0x40 MLOAD DUP1 SWAP2 SUB SWAP1 RETURN JUMPDEST CALLVALUE DUP1 ISZERO PUSH2 0x17E JUMPI PUSH1 0x0 DUP1 REVERT JUMPDEST POP PUSH2 0x15F PUSH3 0x15180 DUP2 JUMP JUMPDEST CALLVALUE DUP1 ISZERO PUSH2 0x195 JUMPI PUSH1 0x0 DUP1 REVERT JUMPDEST POP PUSH2 0x15F PUSH7 0x2386F26FC10000 DUP2 JUMP JUMPDEST CALLVALUE DUP1 ISZERO PUSH2 0x1B0 JUMPI PUSH1 0x0 DUP1 REVERT JUMPDEST POP PUSH2 0x15F PUSH2 0x38A JUMP JUMPDEST CALLVALUE DUP1 ISZERO PUSH2 0x1C5 JUMPI PUSH1 0x0 DUP1 REVERT JUMPDEST POP PUSH2 0x15F PUSH7 0x38D7EA4C68000 DUP2 JUMP JUMPDEST CALLVALUE DUP1 ISZERO PUSH2 0x1E0 JUMPI PUSH1 0x0 DUP1 REVERT JUMPDEST POP PUSH2 0x15F PUSH1 0x0 SLOAD DUP2 JUMP JUMPDEST CALLVALUE DUP1 ISZERO PUSH2 0x1F6 JUMPI PUSH1 0x0 DUP1 REVERT JUMPDEST POP PUSH2 0x1FF PUSH2 0x3B6 JUMP JUMPDEST STOP JUMPDEST CALLVALUE DUP1 ISZERO PUSH2 0x20D JUMPI PUSH1 0x0 DUP1 REVERT JUMPDEST POP PUSH2 0x216 PUSH2 0x45D JUMP JUMPDEST PUSH1 0x40 MLOAD PUSH2 0x169 SWAP2 SWAP1 PUSH2 0xA18 JUMP JUMPDEST CALLVALUE DUP1 ISZERO PUSH2 0x22F JUMPI PUSH1 0x0 DUP1 REVERT JUMPDEST POP PUSH2 0x243 PUSH2 0x23E CALLDATASIZE PUSH1 0x4 PUSH2 0xA65 JUMP JUMPDEST PUSH2 0x4BF JUMP JUMPDEST PUSH1 0x40 MLOAD PUSH1 0x1 PUSH1 0x1 PUSH1 0xA0 SHL SUB SWAP1 SWAP2 AND DUP2 MSTORE PUSH1 0x20 ADD PUSH2 0x169 JUMP JUMPDEST CALLVALUE DUP1 ISZERO PUSH2 0x267 JUMPI PUSH1 0x0 DUP1 REVERT JUMPDEST POP PUSH1 0x1 SLOAD PUSH2 0x243 SWAP1 PUSH1 0x1 PUSH1 0x1 PUSH1 0xA0 SHL SUB AND DUP2 JUMP JUMPDEST CALLVALUE DUP1 ISZERO PUSH2 0x287 JUMPI PUSH1 0x0 DUP1 REVERT JUMPDEST POP CALLER PUSH1 0x0 SWAP1 DUP2 MSTORE PUSH1 0x4 PUSH1 0x20 MSTORE PUSH1 0x40 SWAP1 KECCAK256 SLOAD ISZERO ISZERO PUSH1 0x40 MLOAD SWAP1 ISZERO ISZERO DUP2 MSTORE PUSH1 0x20 ADD PUSH2 0x169 JUMP JUMPDEST CALLVALUE DUP1 ISZERO PUSH2 0x2B6 JUMPI PUSH1 0x0 DUP1 REVERT JUMPDEST POP PUSH2 0x1FF PUSH2 0x4E9 JUMP JUMPDEST PUSH2 0x1FF PUSH2 0x6FE JUMP JUMPDEST CALLVALUE DUP1 ISZERO PUSH2 0x2D3 JUMPI PUSH1 0x0 DUP1 REVERT JUMPDEST POP PUSH2 0x1FF PUSH2 0x846 JUMP JUMPDEST CALLVALUE DUP1 ISZERO PUSH2 0x2E8 JUMPI PUSH1 0x0 DUP1 REVERT JUMPDEST POP PUSH2 0x15F PUSH1 0x2 SLOAD DUP2 JUMP JUMPDEST CALLVALUE DUP1 ISZERO PUSH2 0x2FE JUMPI PUSH1 0x0 DUP1 REVERT JUMPDEST POP PUSH2 0x15F PUSH2 0x30D CALLDATASIZE PUSH1 0x4 PUSH2 0xA7E JUMP JUMPDEST PUSH1 0x1 PUSH1 0x1 PUSH1 0xA0 SHL SUB AND PUSH1 0x0 SWAP1 DUP2 MSTORE PUSH1 0x4 PUSH1 0x20 MSTORE PUSH1 0x40 SWAP1 KECCAK256 SLOAD SWAP1 JUMP JUMPDEST CALLVALUE DUP1 ISZERO PUSH2 0x334 JUMPI PUSH1 0x0 DUP1 REVERT JUMPDEST POP PUSH2 0x15F PUSH2 0x343 CALLDATASIZE PUSH1 0x4 PUSH2 0xA7E JUMP JUMPDEST PUSH1 0x4 PUSH1 0x20 MSTORE PUSH1 0x0 SWAP1 DUP2 MSTORE PUSH1 0x40 SWAP1 KECCAK256 SLOAD DUP2 JUMP JUMPDEST CALLVALUE DUP1 ISZERO PUSH2 0x361 JUMPI PUSH1 0x0 DUP1 REVERT JUMPDEST POP PUSH2 0x1FF PUSH2 0x8E5 JUMP JUMPDEST CALLVALUE DUP1 ISZERO PUSH2 0x376 JUMPI PUSH1 0x0 DUP1 REVERT JUMPDEST POP PUSH1 0x5 SLOAD PUSH2 0x243 SWAP1 PUSH1 0x1 PUSH1 0x1 PUSH1 0xA0 SHL SUB AND DUP2 JUMP JUMPDEST PUSH1 0x0 PUSH2 0x3A4 PUSH7 0x38D7EA4C68000 PUSH7 0x2386F26FC10000 PUSH2 0xAC4 JUMP JUMPDEST PUSH1 0x3 SLOAD PUSH2 0x3B1 SWAP2 SWAP1 PUSH2 0xADD JUMP JUMPDEST SWAP1 POP SWAP1 JUMP JUMPDEST PUSH1 0x1 SLOAD PUSH1 0x1 PUSH1 0x1 PUSH1 0xA0 SHL SUB AND CALLER EQ PUSH2 0x420 JUMPI PUSH1 0x40 MLOAD PUSH3 0x461BCD PUSH1 0xE5 SHL DUP2 MSTORE PUSH1 0x20 PUSH1 0x4 DUP3 ADD MSTORE PUSH1 0x22 PUSH1 0x24 DUP3 ADD MSTORE PUSH32 0x63616C6C6572206973206E6F7420746865206C6F7465727279206F7065726174 PUSH1 0x44 DUP3 ADD MSTORE PUSH2 0x37B9 PUSH1 0xF1 SHL PUSH1 0x64 DUP3 ADD MSTORE PUSH1 0x84 ADD JUMPDEST PUSH1 0x40 MLOAD DUP1 SWAP2 SUB SWAP1 REVERT JUMPDEST PUSH1 0x2 DUP1 SLOAD PUSH1 0x0 SWAP2 DUP3 SWAP1 SSTORE PUSH1 0x40 MLOAD CALLER SWAP3 DUP4 SWAP2 DUP4 ISZERO PUSH2 0x8FC MUL SWAP2 DUP5 SWAP2 SWAP1 DUP2 DUP2 DUP2 DUP6 DUP9 DUP9 CALL SWAP4 POP POP POP POP ISZERO DUP1 ISZERO PUSH2 0x458 JUMPI RETURNDATASIZE PUSH1 0x0 DUP1 RETURNDATACOPY RETURNDATASIZE PUSH1 0x0 REVERT JUMPDEST POP POP POP JUMP JUMPDEST PUSH1 0x60 PUSH1 0x3 DUP1 SLOAD DUP1 PUSH1 0x20 MUL PUSH1 0x20 ADD PUSH1 0x40 MLOAD SWAP1 DUP2 ADD PUSH1 0x40 MSTORE DUP1 SWAP3 SWAP2 SWAP1 DUP2 DUP2 MSTORE PUSH1 0x20 ADD DUP3 DUP1 SLOAD DUP1 ISZERO PUSH2 0x4B5 JUMPI PUSH1 0x20 MUL DUP3 ADD SWAP2 SWAP1 PUSH1 0x0 MSTORE PUSH1 0x20 PUSH1 0x0 KECCAK256 SWAP1 JUMPDEST DUP2 SLOAD PUSH1 0x1 PUSH1 0x1 PUSH1 0xA0 SHL SUB AND DUP2 MSTORE PUSH1 0x1 SWAP1 SWAP2 ADD SWAP1 PUSH1 0x20 ADD DUP1 DUP4 GT PUSH2 0x497 JUMPI JUMPDEST POP POP POP POP POP SWAP1 POP SWAP1 JUMP JUMPDEST PUSH1 0x3 DUP2 DUP2 SLOAD DUP2 LT PUSH2 0x4CF JUMPI PUSH1 0x0 DUP1 REVERT JUMPDEST PUSH1 0x0 SWAP2 DUP3 MSTORE PUSH1 0x20 SWAP1 SWAP2 KECCAK256 ADD SLOAD PUSH1 0x1 PUSH1 0x1 PUSH1 0xA0 SHL SUB AND SWAP1 POP DUP2 JUMP JUMPDEST PUSH1 0x1 SLOAD PUSH1 0x1 PUSH1 0x1 PUSH1 0xA0 SHL SUB AND CALLER EQ PUSH2 0x54E JUMPI PUSH1 0x40 MLOAD PUSH3 0x461BCD PUSH1 0xE5 SHL DUP2 MSTORE PUSH1 0x20 PUSH1 0x4 DUP3 ADD MSTORE PUSH1 0x22 PUSH1 0x24 DUP3 ADD MSTORE PUSH32 0x63616C6C6572206973206E6F7420746865206C6F7465727279206F7065726174 PUSH1 0x44 DUP3 ADD MSTORE PUSH2 0x37B9 PUSH1 0xF1 SHL PUSH1 0x64 DUP3 ADD MSTORE PUSH1 0x84 ADD PUSH2 0x417 JUMP JUMPDEST PUSH1 0x3 SLOAD PUSH2 0x59D JUMPI PUSH1 0x40 MLOAD PUSH3 0x461BCD PUSH1 0xE5 SHL DUP2 MSTORE PUSH1 0x20 PUSH1 0x4 DUP3 ADD MSTORE PUSH1 0x18 PUSH1 0x24 DUP3 ADD MSTORE PUSH32 0x6E6F207469636B65742077657265207075726368617365640000000000000000 PUSH1 0x44 DUP3 ADD MSTORE PUSH1 0x64 ADD PUSH2 0x417 JUMP JUMPDEST PUSH1 0x3 SLOAD PUSH1 0x0 SWAP1 PUSH2 0x5AD SWAP1 NUMBER PUSH2 0xAC4 JUMP JUMPDEST PUSH1 0x40 DUP1 MLOAD TIMESTAMP PUSH1 0x20 DUP3 ADD MSTORE SWAP2 BLOCKHASH SWAP1 DUP3 ADD DUP2 SWAP1 MSTORE SWAP2 POP PUSH1 0x0 SWAP1 PUSH1 0x60 ADD PUSH1 0x40 DUP1 MLOAD PUSH1 0x1F NOT DUP2 DUP5 SUB ADD DUP2 MSTORE SWAP2 SWAP1 MSTORE DUP1 MLOAD PUSH1 0x20 SWAP1 SWAP2 ADD KECCAK256 PUSH1 0x3 SLOAD SWAP1 SWAP2 POP PUSH1 0x0 SWAP1 PUSH2 0x5F2 SWAP1 DUP4 PUSH2 0xB0A JUMP JUMPDEST SWAP1 POP PUSH1 0x0 PUSH1 0x3 DUP3 DUP2 SLOAD DUP2 LT PUSH2 0x609 JUMPI PUSH2 0x609 PUSH2 0xB1E JUMP JUMPDEST PUSH1 0x0 SWAP2 DUP3 MSTORE PUSH1 0x20 SWAP1 SWAP2 KECCAK256 ADD SLOAD PUSH1 0x5 DUP1 SLOAD PUSH20 0xFFFFFFFFFFFFFFFFFFFFFFFFFFFFFFFFFFFFFFFF NOT AND PUSH1 0x1 PUSH1 0x1 PUSH1 0xA0 SHL SUB SWAP1 SWAP3 AND SWAP2 DUP3 OR SWAP1 SSTORE SWAP1 POP PUSH2 0x65A PUSH7 0x38D7EA4C68000 PUSH7 0x2386F26FC10000 PUSH2 0xAC4 JUMP JUMPDEST PUSH1 0x3 SLOAD PUSH2 0x667 SWAP2 SWAP1 PUSH2 0xADD JUMP JUMPDEST PUSH1 0x1 PUSH1 0x1 PUSH1 0xA0 SHL SUB DUP3 AND PUSH1 0x0 SWAP1 DUP2 MSTORE PUSH1 0x4 PUSH1 0x20 MSTORE PUSH1 0x40 DUP2 KECCAK256 DUP1 SLOAD SWAP1 SWAP2 SWAP1 PUSH2 0x68F SWAP1 DUP5 SWAP1 PUSH2 0xB34 JUMP JUMPDEST SWAP1 SWAP2 SSTORE POP POP PUSH1 0x1 PUSH1 0x1 PUSH1 0xA0 SHL SUB DUP2 AND PUSH1 0x0 SWAP1 DUP2 MSTORE PUSH1 0x4 PUSH1 0x20 MSTORE PUSH1 0x40 SWAP1 KECCAK256 SLOAD PUSH1 0x6 SSTORE PUSH1 0x3 SLOAD PUSH2 0x6C5 SWAP1 PUSH7 0x38D7EA4C68000 SWAP1 PUSH2 0xADD JUMP JUMPDEST PUSH1 0x2 PUSH1 0x0 DUP3 DUP3 SLOAD PUSH2 0x6D6 SWAP2 SWAP1 PUSH2 0xB34 JUMP JUMPDEST SWAP1 SWAP2 SSTORE POP PUSH2 0x6E8 SWAP1 POP PUSH1 0x3 PUSH1 0x0 PUSH2 0x9DE JUMP JUMPDEST PUSH2 0x6F5 PUSH3 0x15180 TIMESTAMP PUSH2 0xB34 JUMP JUMPDEST PUSH1 0x0 SSTORE POP POP POP POP JUMP JUMPDEST PUSH1 0x1 SLOAD PUSH1 0x1 PUSH1 0x1 PUSH1 0xA0 SHL SUB AND CALLER SUB PUSH2 0x758 JUMPI PUSH1 0x40 MLOAD PUSH3 0x461BCD PUSH1 0xE5 SHL DUP2 MSTORE PUSH1 0x20 PUSH1 0x4 DUP3 ADD MSTORE PUSH1 0x1E PUSH1 0x24 DUP3 ADD MSTORE PUSH32 0x63616C6C657220697320746865206C6F7465727279206F70657261746F720000 PUSH1 0x44 DUP3 ADD MSTORE PUSH1 0x64 ADD PUSH2 0x417 JUMP JUMPDEST PUSH2 0x769 PUSH7 0x2386F26FC10000 CALLVALUE PUSH2 0xB0A JUMP JUMPDEST ISZERO PUSH2 0x7C1 JUMPI PUSH1 0x40 MLOAD PUSH3 0x461BCD PUSH1 0xE5 SHL DUP2 MSTORE PUSH1 0x20 PUSH1 0x4 DUP3 ADD MSTORE PUSH1 0x22 PUSH1 0x24 DUP3 ADD MSTORE PUSH32 0x7468652076616C7565206D757374206265206D756C7469706C65206F6620302E PUSH1 0x44 DUP3 ADD MSTORE PUSH2 0x3031 PUSH1 0xF0 SHL PUSH1 0x64 DUP3 ADD MSTORE PUSH1 0x84 ADD PUSH2 0x417 JUMP JUMPDEST PUSH1 0x0 PUSH2 0x7D4 PUSH7 0x2386F26FC10000 CALLVALUE PUSH2 0xB47 JUMP JUMPDEST SWAP1 POP PUSH1 0x0 JUMPDEST DUP2 DUP2 LT ISZERO PUSH2 0x842 JUMPI PUSH1 0x3 DUP1 SLOAD PUSH1 0x1 DUP2 ADD DUP3 SSTORE PUSH1 0x0 SWAP2 SWAP1 SWAP2 MSTORE PUSH32 0xC2575A0E9E593C00F959F8C92F12DB2869C3395A3B0502D05E2516446F71F85B ADD DUP1 SLOAD PUSH20 0xFFFFFFFFFFFFFFFFFFFFFFFFFFFFFFFFFFFFFFFF NOT AND CALLER OR SWAP1 SSTORE DUP1 PUSH2 0x83A DUP2 PUSH2 0xB5B JUMP JUMPDEST SWAP2 POP POP PUSH2 0x7D9 JUMP JUMPDEST POP POP JUMP JUMPDEST CALLER PUSH1 0x0 SWAP1 DUP2 MSTORE PUSH1 0x4 PUSH1 0x20 MSTORE PUSH1 0x40 SWAP1 KECCAK256 SLOAD PUSH2 0x8A2 JUMPI PUSH1 0x40 MLOAD PUSH3 0x461BCD PUSH1 0xE5 SHL DUP2 MSTORE PUSH1 0x20 PUSH1 0x4 DUP3 ADD MSTORE PUSH1 0x14 PUSH1 0x24 DUP3 ADD MSTORE PUSH32 0x63616C6C6572206973206E6F742077696E6E6572000000000000000000000000 PUSH1 0x44 DUP3 ADD MSTORE PUSH1 0x64 ADD PUSH2 0x417 JUMP JUMPDEST CALLER PUSH1 0x0 DUP2 DUP2 MSTORE PUSH1 0x4 PUSH1 0x20 MSTORE PUSH1 0x40 DUP1 DUP3 KECCAK256 DUP1 SLOAD SWAP1 DUP4 SWAP1 SSTORE SWAP1 MLOAD SWAP1 SWAP2 DUP4 SWAP2 DUP4 ISZERO PUSH2 0x8FC MUL SWAP2 DUP5 SWAP2 SWAP1 DUP2 DUP2 DUP2 DUP6 DUP9 DUP9 CALL SWAP4 POP POP POP POP ISZERO DUP1 ISZERO PUSH2 0x458 JUMPI RETURNDATASIZE PUSH1 0x0 DUP1 RETURNDATACOPY RETURNDATASIZE PUSH1 0x0 REVERT JUMPDEST PUSH1 0x1 SLOAD PUSH1 0x1 PUSH1 0x1 PUSH1 0xA0 SHL SUB AND CALLER EQ PUSH2 0x94A JUMPI PUSH1 0x40 MLOAD PUSH3 0x461BCD PUSH1 0xE5 SHL DUP2 MSTORE PUSH1 0x20 PUSH1 0x4 DUP3 ADD MSTORE PUSH1 0x22 PUSH1 0x24 DUP3 ADD MSTORE PUSH32 0x63616C6C6572206973206E6F7420746865206C6F7465727279206F7065726174 PUSH1 0x44 DUP3 ADD MSTORE PUSH2 0x37B9 PUSH1 0xF1 SHL PUSH1 0x64 DUP3 ADD MSTORE PUSH1 0x84 ADD PUSH2 0x417 JUMP JUMPDEST PUSH1 0x3 SLOAD ISZERO PUSH2 0x9C0 JUMPI PUSH1 0x40 MLOAD PUSH3 0x461BCD PUSH1 0xE5 SHL DUP2 MSTORE PUSH1 0x20 PUSH1 0x4 DUP3 ADD MSTORE PUSH1 0x26 PUSH1 0x24 DUP3 ADD MSTORE PUSH32 0x63616E6E6F742072657374617274206472617720617320647261772069732069 PUSH1 0x44 DUP3 ADD MSTORE PUSH32 0x6E20706C61790000000000000000000000000000000000000000000000000000 PUSH1 0x64 DUP3 ADD MSTORE PUSH1 0x84 ADD PUSH2 0x417 JUMP JUMPDEST PUSH2 0x9CC PUSH1 0x3 PUSH1 0x0 PUSH2 0x9DE JUMP JUMPDEST PUSH2 0x9D9 PUSH3 0x15180 TIMESTAMP PUSH2 0xB34 JUMP JUMPDEST PUSH1 0x0 SSTORE JUMP JUMPDEST POP DUP1 SLOAD PUSH1 0x0 DUP3 SSTORE SWAP1 PUSH1 0x0 MSTORE PUSH1 0x20 PUSH1 0x0 KECCAK256 SWAP1 DUP2 ADD SWAP1 PUSH2 0x9FC SWAP2 SWAP1 PUSH2 0x9FF JUMP JUMPDEST POP JUMP JUMPDEST JUMPDEST DUP1 DUP3 GT ISZERO PUSH2 0xA14 JUMPI PUSH1 0x0 DUP2 SSTORE PUSH1 0x1 ADD PUSH2 0xA00 JUMP JUMPDEST POP SWAP1 JUMP JUMPDEST PUSH1 0x20 DUP1 DUP3 MSTORE DUP3 MLOAD DUP3 DUP3 ADD DUP2 SWAP1 MSTORE PUSH1 0x0 SWAP2 SWAP1 DUP5 DUP3 ADD SWAP1 PUSH1 0x40 DUP6 ADD SWAP1 DUP5 JUMPDEST DUP2 DUP2 LT ISZERO PUSH2 0xA59 JUMPI DUP4 MLOAD PUSH1 0x1 PUSH1 0x1 PUSH1 0xA0 SHL SUB AND DUP4 MSTORE SWAP3 DUP5 ADD SWAP3 SWAP2 DUP5 ADD SWAP2 PUSH1 0x1 ADD PUSH2 0xA34 JUMP JUMPDEST POP SWAP1 SWAP7 SWAP6 POP POP POP POP POP POP JUMP JUMPDEST PUSH1 0x0 PUSH1 0x20 DUP3 DUP5 SUB SLT ISZERO PUSH2 0xA77 JUMPI PUSH1 0x0 DUP1 REVERT JUMPDEST POP CALLDATALOAD SWAP2 SWAP1 POP JUMP JUMPDEST PUSH1 0x0 PUSH1 0x20 DUP3 DUP5 SUB SLT ISZERO PUSH2 0xA90 JUMPI PUSH1 0x0 DUP1 REVERT JUMPDEST DUP2 CALLDATALOAD PUSH1 0x1 PUSH1 0x1 PUSH1 0xA0 SHL SUB DUP2 AND DUP2 EQ PUSH2 0xAA7 JUMPI PUSH1 0x0 DUP1 REVERT JUMPDEST SWAP4 SWAP3 POP POP POP JUMP JUMPDEST PUSH4 0x4E487B71 PUSH1 0xE0 SHL PUSH1 0x0 MSTORE PUSH1 0x11 PUSH1 0x4 MSTORE PUSH1 0x24 PUSH1 0x0 REVERT JUMPDEST DUP2 DUP2 SUB DUP2 DUP2 GT ISZERO PUSH2 0xAD7 JUMPI PUSH2 0xAD7 PUSH2 0xAAE JUMP JUMPDEST SWAP3 SWAP2 POP POP JUMP JUMPDEST DUP1 DUP3 MUL DUP2 ISZERO DUP3 DUP3 DIV DUP5 EQ OR PUSH2 0xAD7 JUMPI PUSH2 0xAD7 PUSH2 0xAAE JUMP JUMPDEST PUSH4 0x4E487B71 PUSH1 0xE0 SHL PUSH1 0x0 MSTORE PUSH1 0x12 PUSH1 0x4 MSTORE PUSH1 0x24 PUSH1 0x0 REVERT JUMPDEST PUSH1 0x0 DUP3 PUSH2 0xB19 JUMPI PUSH2 0xB19 PUSH2 0xAF4 JUMP JUMPDEST POP MOD SWAP1 JUMP JUMPDEST PUSH4 0x4E487B71 PUSH1 0xE0 SHL PUSH1 0x0 MSTORE PUSH1 0x32 PUSH1 0x4 MSTORE PUSH1 0x24 PUSH1 0x0 REVERT JUMPDEST DUP1 DUP3 ADD DUP1 DUP3 GT ISZERO PUSH2 0xAD7 JUMPI PUSH2 0xAD7 PUSH2 0xAAE JUMP JUMPDEST PUSH1 0x0 DUP3 PUSH2 0xB56 JUMPI PUSH2 0xB56 PUSH2 0xAF4 JUMP JUMPDEST POP DIV SWAP1 JUMP JUMPDEST PUSH1 0x0 PUSH1 0x1 DUP3 ADD PUSH2 0xB6D JUMPI PUSH2 0xB6D PUSH2 0xAAE JUMP JUMPDEST POP PUSH1 0x1 ADD SWAP1 JUMP INVALID LOG2 PUSH5 0x6970667358 0x22 SLT KECCAK256 CALLDATALOAD 0xBA 0x23 SSTORE 0xC1 DUP15 0xE1 STOP 0xD1 OR SMOD DUP2 0xC9 MSTORE DIFFICULTY 0xBF 0xB4 PUSH13 0xE640EE5C9E62BE7553218F47A5 0x4E PUSH5 0x736F6C6343 STOP ADDMOD GT STOP CALLER "
        },
        "gasEstimates": {
            "creation": {
                "codeDepositCost": "597200",
                "executionCost": "52062",
                "totalCost": "649262"
            },
            "external": {
                "buyTickets()": "infinite",
                "currentWinningReward()": "infinite",
                "drawWinnerTicket()": "infinite",
                "duration()": "230",
                "expiration()": "2352",
                "getTickets()": "infinite",
                "getWinningsForAddress(address)": "2558",
                "lastWinner()": "2425",
                "lastWinnerAmount()": "2308",
                "lotteryOperator()": "2383",
                "operatorTotalComisison()": "2329",
                "restartDraw()": "infinite",
                "senderIsWinner()": "2428",
                "ticketComission()": "230",
                "ticketPrice()": "252",
                "tickets(uint256)": "4703",
                "winnings(address)": "2517",
                "withdrawComission()": "infinite",
                "withdrawWinnings()": "infinite"
            }
        },
        "methodIdentifiers": {
            "buyTickets()": "c8199826",
            "currentWinningReward()": "1d8d605b",
            "drawWinnerTicket()": "6894744e",
            "duration()": "0fb5a6b4",
            "expiration()": "4665096d",
            "getTickets()": "4ed02622",
            "getWinningsForAddress(address)": "dd64e534",
            "lastWinner()": "fe188184",
            "lastWinnerAmount()": "06f7f3bf",
            "lotteryOperator()": "5a58acdd",
            "operatorTotalComisison()": "d2d582f1",
            "restartDraw()": "f2613269",
            "senderIsWinner()": "677a9e34",
            "ticketComission()": "24aa5920",
            "ticketPrice()": "1209b1f6",
            "tickets(uint256)": "50b44712",
            "winnings(address)": "ea3a1499",
            "withdrawComission()": "4c62a644",
            "withdrawWinnings()": "cc42e83a"
        }
    },
    "storageLayout": {
        "storage": [
            {
                "astId": 12,
                "contract": "LuckyTickets.sol:LuckyTickets",
                "label": "expiration",
                "offset": 0,
                "slot": "0",
                "type": "t_uint256"
            },
            {
                "astId": 14,
                "contract": "LuckyTickets.sol:LuckyTickets",
                "label": "lotteryOperator",
                "offset": 0,
                "slot": "1",
                "type": "t_address"
            },
            {
                "astId": 17,
                "contract": "LuckyTickets.sol:LuckyTickets",
                "label": "operatorTotalComisison",
                "offset": 0,
                "slot": "2",
                "type": "t_uint256"
            },
            {
                "astId": 20,
                "contract": "LuckyTickets.sol:LuckyTickets",
                "label": "tickets",
                "offset": 0,
                "slot": "3",
                "type": "t_array(t_address)dyn_storage"
            },
            {
                "astId": 24,
                "contract": "LuckyTickets.sol:LuckyTickets",
                "label": "winnings",
                "offset": 0,
                "slot": "4",
                "type": "t_mapping(t_address,t_uint256)"
            },
            {
                "astId": 26,
                "contract": "LuckyTickets.sol:LuckyTickets",
                "label": "lastWinner",
                "offset": 0,
                "slot": "5",
                "type": "t_address"
            },
            {
                "astId": 28,
                "contract": "LuckyTickets.sol:LuckyTickets",
                "label": "lastWinnerAmount",
                "offset": 0,
                "slot": "6",
                "type": "t_uint256"
            }
        ],
        "types": {
            "t_address": {
                "encoding": "inplace",
                "label": "address",
                "numberOfBytes": "20"
            },
            "t_array(t_address)dyn_storage": {
                "base": "t_address",
                "encoding": "dynamic_array",
                "label": "address[]",
                "numberOfBytes": "32"
            },
            "t_mapping(t_address,t_uint256)": {
                "encoding": "mapping",
                "key": "t_address",
                "label": "mapping(address => uint256)",
                "numberOfBytes": "32",
                "value": "t_uint256"
            },
            "t_uint256": {
                "encoding": "inplace",
                "label": "uint256",
                "numberOfBytes": "32"
            }
        }
    },
    "userdoc": {
        "kind": "user",
        "methods": {},
        "version": 1
    }
}